{
  "_format": "hh-sol-artifact-1",
  "contractName": "YoursIntegratedNFT",
  "sourceName": "contracts/YoursIntegratedNFT.sol",
  "abi": [
    {
      "inputs": [
        {
          "internalType": "address",
          "name": "_factory",
          "type": "address"
        }
      ],
      "stateMutability": "nonpayable",
      "type": "constructor"
    },
    {
      "anonymous": false,
      "inputs": [
        {
          "indexed": true,
          "internalType": "address",
          "name": "account",
          "type": "address"
        },
        {
          "indexed": true,
          "internalType": "address",
          "name": "operator",
          "type": "address"
        },
        {
          "indexed": false,
          "internalType": "bool",
          "name": "approved",
          "type": "bool"
        }
      ],
      "name": "ApprovalForAll",
      "type": "event"
    },
    {
      "anonymous": false,
      "inputs": [
        {
          "indexed": true,
          "internalType": "address",
          "name": "operator",
          "type": "address"
        },
        {
          "indexed": true,
          "internalType": "address",
          "name": "from",
          "type": "address"
        },
        {
          "indexed": true,
          "internalType": "address",
          "name": "to",
          "type": "address"
        },
        {
          "indexed": false,
          "internalType": "uint256[]",
          "name": "ids",
          "type": "uint256[]"
        },
        {
          "indexed": false,
          "internalType": "uint256[]",
          "name": "values",
          "type": "uint256[]"
        }
      ],
      "name": "TransferBatch",
      "type": "event"
    },
    {
      "anonymous": false,
      "inputs": [
        {
          "indexed": true,
          "internalType": "address",
          "name": "operator",
          "type": "address"
        },
        {
          "indexed": true,
          "internalType": "address",
          "name": "from",
          "type": "address"
        },
        {
          "indexed": true,
          "internalType": "address",
          "name": "to",
          "type": "address"
        },
        {
          "indexed": false,
          "internalType": "uint256",
          "name": "id",
          "type": "uint256"
        },
        {
          "indexed": false,
          "internalType": "uint256",
          "name": "value",
          "type": "uint256"
        }
      ],
      "name": "TransferSingle",
      "type": "event"
    },
    {
      "anonymous": false,
      "inputs": [
        {
          "indexed": false,
          "internalType": "string",
          "name": "value",
          "type": "string"
        },
        {
          "indexed": true,
          "internalType": "uint256",
          "name": "id",
          "type": "uint256"
        }
      ],
      "name": "URI",
      "type": "event"
    },
    {
      "inputs": [
        {
          "internalType": "address",
          "name": "account",
          "type": "address"
        },
        {
          "internalType": "uint256",
          "name": "id",
          "type": "uint256"
        }
      ],
      "name": "balanceOf",
      "outputs": [
        {
          "internalType": "uint256",
          "name": "",
          "type": "uint256"
        }
      ],
      "stateMutability": "view",
      "type": "function"
    },
    {
      "inputs": [
        {
          "internalType": "address[]",
          "name": "accounts",
          "type": "address[]"
        },
        {
          "internalType": "uint256[]",
          "name": "ids",
          "type": "uint256[]"
        }
      ],
      "name": "balanceOfBatch",
      "outputs": [
        {
          "internalType": "uint256[]",
          "name": "",
          "type": "uint256[]"
        }
      ],
      "stateMutability": "view",
      "type": "function"
    },
    {
      "inputs": [
        {
          "internalType": "address",
          "name": "_user",
          "type": "address"
        },
        {
          "internalType": "uint256",
          "name": "_id",
          "type": "uint256"
        },
        {
          "internalType": "uint256",
          "name": "_amount",
          "type": "uint256"
        }
      ],
      "name": "burn",
      "outputs": [],
      "stateMutability": "nonpayable",
      "type": "function"
    },
    {
      "inputs": [
        {
          "internalType": "address",
          "name": "_to",
          "type": "address"
        },
        {
          "internalType": "string",
          "name": "_uri",
          "type": "string"
        },
        {
          "internalType": "address[]",
          "name": "_nftAddresses",
          "type": "address[]"
        },
        {
          "internalType": "uint256[]",
          "name": "_nftIds",
          "type": "uint256[]"
        }
      ],
      "name": "combineMintWithUri",
      "outputs": [
        {
          "internalType": "uint256",
          "name": "",
          "type": "uint256"
        }
      ],
      "stateMutability": "nonpayable",
      "type": "function"
    },
    {
      "inputs": [],
      "name": "count",
      "outputs": [
        {
          "internalType": "uint256",
          "name": "",
          "type": "uint256"
        }
      ],
      "stateMutability": "view",
      "type": "function"
    },
    {
      "inputs": [],
      "name": "factory",
      "outputs": [
        {
          "internalType": "address",
          "name": "",
          "type": "address"
        }
      ],
      "stateMutability": "view",
      "type": "function"
    },
    {
      "inputs": [
        {
          "internalType": "uint256",
          "name": "_id",
          "type": "uint256"
        }
      ],
      "name": "getLength",
      "outputs": [
        {
          "internalType": "uint256",
          "name": "",
          "type": "uint256"
        }
      ],
      "stateMutability": "view",
      "type": "function"
    },
    {
      "inputs": [
        {
          "internalType": "uint256",
          "name": "",
          "type": "uint256"
        },
        {
          "internalType": "uint256",
          "name": "",
          "type": "uint256"
        }
      ],
      "name": "integratedNFT",
      "outputs": [
        {
          "internalType": "address",
          "name": "nftAddress",
          "type": "address"
        },
        {
          "internalType": "uint256",
          "name": "id",
          "type": "uint256"
        }
      ],
      "stateMutability": "view",
      "type": "function"
    },
    {
      "inputs": [
        {
          "internalType": "address",
          "name": "account",
          "type": "address"
        },
        {
          "internalType": "address",
          "name": "operator",
          "type": "address"
        }
      ],
      "name": "isApprovedForAll",
      "outputs": [
        {
          "internalType": "bool",
          "name": "",
          "type": "bool"
        }
      ],
      "stateMutability": "view",
      "type": "function"
    },
    {
      "inputs": [],
      "name": "name",
      "outputs": [
        {
          "internalType": "string",
          "name": "",
          "type": "string"
        }
      ],
      "stateMutability": "view",
      "type": "function"
    },
    {
      "inputs": [],
      "name": "owner",
      "outputs": [
        {
          "internalType": "address",
          "name": "",
          "type": "address"
        }
      ],
      "stateMutability": "view",
      "type": "function"
    },
    {
      "inputs": [
        {
          "internalType": "address",
          "name": "from",
          "type": "address"
        },
        {
          "internalType": "address",
          "name": "to",
          "type": "address"
        },
        {
          "internalType": "uint256[]",
          "name": "ids",
          "type": "uint256[]"
        },
        {
          "internalType": "uint256[]",
          "name": "amounts",
          "type": "uint256[]"
        },
        {
          "internalType": "bytes",
          "name": "data",
          "type": "bytes"
        }
      ],
      "name": "safeBatchTransferFrom",
      "outputs": [],
      "stateMutability": "nonpayable",
      "type": "function"
    },
    {
      "inputs": [
        {
          "internalType": "address",
          "name": "from",
          "type": "address"
        },
        {
          "internalType": "address",
          "name": "to",
          "type": "address"
        },
        {
          "internalType": "uint256",
          "name": "id",
          "type": "uint256"
        },
        {
          "internalType": "uint256",
          "name": "amount",
          "type": "uint256"
        },
        {
          "internalType": "bytes",
          "name": "data",
          "type": "bytes"
        }
      ],
      "name": "safeTransferFrom",
      "outputs": [],
      "stateMutability": "nonpayable",
      "type": "function"
    },
    {
      "inputs": [
        {
          "internalType": "address",
          "name": "operator",
          "type": "address"
        },
        {
          "internalType": "bool",
          "name": "approved",
          "type": "bool"
        }
      ],
      "name": "setApprovalForAll",
      "outputs": [],
      "stateMutability": "nonpayable",
      "type": "function"
    },
    {
      "inputs": [
        {
          "internalType": "bytes4",
          "name": "interfaceId",
          "type": "bytes4"
        }
      ],
      "name": "supportsInterface",
      "outputs": [
        {
          "internalType": "bool",
          "name": "",
          "type": "bool"
        }
      ],
      "stateMutability": "view",
      "type": "function"
    },
    {
      "inputs": [],
      "name": "symbol",
      "outputs": [
        {
          "internalType": "string",
          "name": "",
          "type": "string"
        }
      ],
      "stateMutability": "view",
      "type": "function"
    },
    {
      "inputs": [
        {
          "internalType": "uint256",
          "name": "",
          "type": "uint256"
        }
      ],
      "name": "tokenURI",
      "outputs": [
        {
          "internalType": "string",
          "name": "",
          "type": "string"
        }
      ],
      "stateMutability": "view",
      "type": "function"
    },
    {
      "inputs": [],
      "name": "totalSupply",
      "outputs": [
        {
          "internalType": "uint256",
          "name": "",
          "type": "uint256"
        }
      ],
      "stateMutability": "view",
      "type": "function"
    },
    {
      "inputs": [
        {
          "internalType": "uint256",
          "name": "_id",
          "type": "uint256"
        }
      ],
      "name": "uri",
      "outputs": [
        {
          "internalType": "string",
          "name": "",
          "type": "string"
        }
      ],
      "stateMutability": "view",
      "type": "function"
    }
  ],
  "bytecode": "0x60806040523480156200001157600080fd5b50604051620039c3380380620039c3833981810160405281019062000037919062000132565b33600360006101000a81548173ffffffffffffffffffffffffffffffffffffffff021916908373ffffffffffffffffffffffffffffffffffffffff16021790555080600460006101000a81548173ffffffffffffffffffffffffffffffffffffffff021916908373ffffffffffffffffffffffffffffffffffffffff16021790555060006005819055505062000164565b600080fd5b600073ffffffffffffffffffffffffffffffffffffffff82169050919050565b6000620000fa82620000cd565b9050919050565b6200010c81620000ed565b81146200011857600080fd5b50565b6000815190506200012c8162000101565b92915050565b6000602082840312156200014b576200014a620000c8565b5b60006200015b848285016200011b565b91505092915050565b61384f80620001746000396000f3fe608060405234801561001057600080fd5b50600436106101205760003560e01c806356a93801116100ad578063c45a015511610071578063c45a015514610344578063c87b56dd14610362578063e985e9c514610392578063f242432a146103c2578063f5298aca146103de57610120565b806356a938011461028b5780638da5cb5b146102bc57806395d89b41146102da5780639ccf15a6146102f8578063a22cb4651461032857610120565b80630986e647116100f45780630986e647146101c15780630e89341c146101f157806318160ddd146102215780632eb2c2d61461023f5780634e1273f41461025b57610120565b8062fdd58e1461012557806301ffc9a71461015557806306661abd1461018557806306fdde03146101a3575b600080fd5b61013f600480360381019061013a9190611fd1565b6103fa565b60405161014c9190612020565b60405180910390f35b61016f600480360381019061016a9190612093565b6104c2565b60405161017c91906120db565b60405180910390f35b61018d6105a4565b60405161019a9190612020565b60405180910390f35b6101ab6105aa565b6040516101b89190612186565b60405180910390f35b6101db60048036038101906101d691906121a8565b610638565b6040516101e89190612020565b60405180910390f35b61020b600480360381019061020691906121a8565b610658565b6040516102189190612186565b60405180910390f35b6102296106fd565b6040516102369190612020565b60405180910390f35b610259600480360381019061025491906123d2565b610707565b005b61027560048036038101906102709190612564565b6107a8565b604051610282919061269a565b60405180910390f35b6102a560048036038101906102a091906126bc565b6108c1565b6040516102b392919061270b565b60405180910390f35b6102c4610922565b6040516102d19190612734565b60405180910390f35b6102e2610948565b6040516102ef9190612186565b60405180910390f35b610312600480360381019061030d91906127f0565b6109d6565b60405161031f9190612020565b60405180910390f35b610342600480360381019061033d91906128d7565b610b37565b005b61034c610b4d565b6040516103599190612734565b60405180910390f35b61037c600480360381019061037791906121a8565b610b73565b6040516103899190612186565b60405180910390f35b6103ac60048036038101906103a79190612917565b610c13565b6040516103b991906120db565b60405180910390f35b6103dc60048036038101906103d79190612957565b610ca7565b005b6103f860048036038101906103f391906129ee565b610d48565b005b60008073ffffffffffffffffffffffffffffffffffffffff168373ffffffffffffffffffffffffffffffffffffffff160361046a576040517f08c379a000000000000000000000000000000000000000000000000000000000815260040161046190612ab3565b60405180910390fd5b60008083815260200190815260200160002060008473ffffffffffffffffffffffffffffffffffffffff1673ffffffffffffffffffffffffffffffffffffffff16815260200190815260200160002054905092915050565b60007fd9b67a26000000000000000000000000000000000000000000000000000000007bffffffffffffffffffffffffffffffffffffffffffffffffffffffff1916827bffffffffffffffffffffffffffffffffffffffffffffffffffffffff1916148061058d57507f0e89341c000000000000000000000000000000000000000000000000000000007bffffffffffffffffffffffffffffffffffffffffffffffffffffffff1916827bffffffffffffffffffffffffffffffffffffffffffffffffffffffff1916145b8061059d575061059c82610d9e565b5b9050919050565b60055481565b600680546105b790612b02565b80601f01602080910402602001604051908101604052809291908181526020018280546105e390612b02565b80156106305780601f1061060557610100808354040283529160200191610630565b820191906000526020600020905b81548152906001019060200180831161061357829003601f168201915b505050505081565b600060096000838152602001908152602001600020805490509050919050565b606060086000838152602001908152602001600020805461067890612b02565b80601f01602080910402602001604051908101604052809291908181526020018280546106a490612b02565b80156106f15780601f106106c6576101008083540402835291602001916106f1565b820191906000526020600020905b8154815290600101906020018083116106d457829003601f168201915b50505050509050919050565b6000600554905090565b61070f610e08565b73ffffffffffffffffffffffffffffffffffffffff168573ffffffffffffffffffffffffffffffffffffffff16148061075557506107548561074f610e08565b610c13565b5b610794576040517f08c379a000000000000000000000000000000000000000000000000000000000815260040161078b90612ba5565b60405180910390fd5b6107a18585858585610e10565b5050505050565b606081518351146107ee576040517f08c379a00000000000000000000000000000000000000000000000000000000081526004016107e590612c37565b60405180910390fd5b6000835167ffffffffffffffff81111561080b5761080a6121da565b5b6040519080825280602002602001820160405280156108395781602001602082028036833780820191505090505b50905060005b84518110156108b65761088685828151811061085e5761085d612c57565b5b602002602001015185838151811061087957610878612c57565b5b60200260200101516103fa565b82828151811061089957610898612c57565b5b602002602001018181525050806108af90612cb5565b905061083f565b508091505092915050565b600960205281600052604060002081815481106108dd57600080fd5b9060005260206000209060020201600091509150508060000160009054906101000a900473ffffffffffffffffffffffffffffffffffffffff16908060010154905082565b600360009054906101000a900473ffffffffffffffffffffffffffffffffffffffff1681565b6007805461095590612b02565b80601f016020809104026020016040519081016040528092919081815260200182805461098190612b02565b80156109ce5780601f106109a3576101008083540402835291602001916109ce565b820191906000526020600020905b8154815290600101906020018083116109b157829003601f168201915b505050505081565b60006109e061112f565b60006005600081546109f190612cb5565b9190508190559050610a138682604051806020016040528060008152506111c1565b610a1d8186611363565b60005b8451811015610b2a57600960008381526020019081526020016000206040518060400160405280878481518110610a5a57610a59612c57565b5b602002602001015173ffffffffffffffffffffffffffffffffffffffff168152602001868481518110610a9057610a8f612c57565b5b6020026020010151815250908060018154018082558091505060019003906000526020600020906002020160009091909190915060008201518160000160006101000a81548173ffffffffffffffffffffffffffffffffffffffff021916908373ffffffffffffffffffffffffffffffffffffffff1602179055506020820151816001015550508080610b2290612cb5565b915050610a20565b5080915050949350505050565b610b49610b42610e08565b83836113c0565b5050565b600460009054906101000a900473ffffffffffffffffffffffffffffffffffffffff1681565b60086020528060005260406000206000915090508054610b9290612b02565b80601f0160208091040260200160405190810160405280929190818152602001828054610bbe90612b02565b8015610c0b5780601f10610be057610100808354040283529160200191610c0b565b820191906000526020600020905b815481529060010190602001808311610bee57829003601f168201915b505050505081565b6000600160008473ffffffffffffffffffffffffffffffffffffffff1673ffffffffffffffffffffffffffffffffffffffff16815260200190815260200160002060008373ffffffffffffffffffffffffffffffffffffffff1673ffffffffffffffffffffffffffffffffffffffff16815260200190815260200160002060009054906101000a900460ff16905092915050565b610caf610e08565b73ffffffffffffffffffffffffffffffffffffffff168573ffffffffffffffffffffffffffffffffffffffff161480610cf55750610cf485610cef610e08565b610c13565b5b610d34576040517f08c379a0000000000000000000000000000000000000000000000000000000008152600401610d2b90612ba5565b60405180910390fd5b610d41858585858561152c565b5050505050565b610d5061112f565b600860008381526020019081526020016000206000610d6f9190611e62565b600960008381526020019081526020016000206000610d8e9190611ea2565b610d998383836117c5565b505050565b60007f01ffc9a7000000000000000000000000000000000000000000000000000000007bffffffffffffffffffffffffffffffffffffffffffffffffffffffff1916827bffffffffffffffffffffffffffffffffffffffffffffffffffffffff1916149050919050565b600033905090565b8151835114610e54576040517f08c379a0000000000000000000000000000000000000000000000000000000008152600401610e4b90612d6f565b60405180910390fd5b600073ffffffffffffffffffffffffffffffffffffffff168473ffffffffffffffffffffffffffffffffffffffff1603610ec3576040517f08c379a0000000000000000000000000000000000000000000000000000000008152600401610eba90612e01565b60405180910390fd5b6000610ecd610e08565b9050610edc8187878786611a09565b60005b845181101561108d576000858281518110610efd57610efc612c57565b5b602002602001015190506000858381518110610f1c57610f1b612c57565b5b60200260200101519050600080600084815260200190815260200160002060008b73ffffffffffffffffffffffffffffffffffffffff1673ffffffffffffffffffffffffffffffffffffffff16815260200190815260200160002054905081811015610fbd576040517f08c379a0000000000000000000000000000000000000000000000000000000008152600401610fb490612e93565b60405180910390fd5b81810360008085815260200190815260200160002060008c73ffffffffffffffffffffffffffffffffffffffff1673ffffffffffffffffffffffffffffffffffffffff168152602001908152602001600020819055508160008085815260200190815260200160002060008b73ffffffffffffffffffffffffffffffffffffffff1673ffffffffffffffffffffffffffffffffffffffff16815260200190815260200160002060008282546110729190612eb3565b925050819055505050508061108690612cb5565b9050610edf565b508473ffffffffffffffffffffffffffffffffffffffff168673ffffffffffffffffffffffffffffffffffffffff168273ffffffffffffffffffffffffffffffffffffffff167f4a39dc06d4c0dbc64b70af90fd698a233a518aa5d07e595d983b8c0526c8f7fb8787604051611104929190612ee7565b60405180910390a46111198187878786611a10565b611127818787878787611a17565b505050505050565b600460009054906101000a900473ffffffffffffffffffffffffffffffffffffffff1673ffffffffffffffffffffffffffffffffffffffff163373ffffffffffffffffffffffffffffffffffffffff16146111bf576040517f08c379a00000000000000000000000000000000000000000000000000000000081526004016111b690612f6a565b60405180910390fd5b565b600073ffffffffffffffffffffffffffffffffffffffff168373ffffffffffffffffffffffffffffffffffffffff1603611230576040517f08c379a000000000000000000000000000000000000000000000000000000000815260040161122790612ffc565b60405180910390fd5b600061123a610e08565b9050600061124784611bee565b9050611257826000878487611a09565b600160008086815260200190815260200160002060008773ffffffffffffffffffffffffffffffffffffffff1673ffffffffffffffffffffffffffffffffffffffff16815260200190815260200160002060008282546112b79190612eb3565b925050819055508473ffffffffffffffffffffffffffffffffffffffff16600073ffffffffffffffffffffffffffffffffffffffff168373ffffffffffffffffffffffffffffffffffffffff167fc3d58168c5ae7397731d063d5bbf3d657854427343f4c083240f7aacaa2d0f62876001604051611336929190613061565b60405180910390a461134c826000878487611a10565b61135c8260008787600188611c68565b5050505050565b80600860008481526020019081526020016000209081611383919061322c565b50817f6bb7ff708619ba0610cba295a58592e0451dee2622938c8755667688daf3529b826040516113b49190612186565b60405180910390a25050565b8173ffffffffffffffffffffffffffffffffffffffff168373ffffffffffffffffffffffffffffffffffffffff160361142e576040517f08c379a000000000000000000000000000000000000000000000000000000000815260040161142590613370565b60405180910390fd5b80600160008573ffffffffffffffffffffffffffffffffffffffff1673ffffffffffffffffffffffffffffffffffffffff16815260200190815260200160002060008473ffffffffffffffffffffffffffffffffffffffff1673ffffffffffffffffffffffffffffffffffffffff16815260200190815260200160002060006101000a81548160ff0219169083151502179055508173ffffffffffffffffffffffffffffffffffffffff168373ffffffffffffffffffffffffffffffffffffffff167f17307eab39ab6107e8899845ad3d59bd9653f200f220920489ca2b5937696c318360405161151f91906120db565b60405180910390a3505050565b600073ffffffffffffffffffffffffffffffffffffffff168473ffffffffffffffffffffffffffffffffffffffff160361159b576040517f08c379a000000000000000000000000000000000000000000000000000000000815260040161159290612e01565b60405180910390fd5b60006115a5610e08565b905060006115b285611bee565b905060006115bf85611bee565b90506115ce8389898588611a09565b600080600088815260200190815260200160002060008a73ffffffffffffffffffffffffffffffffffffffff1673ffffffffffffffffffffffffffffffffffffffff16815260200190815260200160002054905085811015611665576040517f08c379a000000000000000000000000000000000000000000000000000000000815260040161165c90612e93565b60405180910390fd5b85810360008089815260200190815260200160002060008b73ffffffffffffffffffffffffffffffffffffffff1673ffffffffffffffffffffffffffffffffffffffff168152602001908152602001600020819055508560008089815260200190815260200160002060008a73ffffffffffffffffffffffffffffffffffffffff1673ffffffffffffffffffffffffffffffffffffffff168152602001908152602001600020600082825461171a9190612eb3565b925050819055508773ffffffffffffffffffffffffffffffffffffffff168973ffffffffffffffffffffffffffffffffffffffff168573ffffffffffffffffffffffffffffffffffffffff167fc3d58168c5ae7397731d063d5bbf3d657854427343f4c083240f7aacaa2d0f628a8a604051611797929190613390565b60405180910390a46117ac848a8a8689611a10565b6117ba848a8a8a8a8a611c68565b505050505050505050565b600073ffffffffffffffffffffffffffffffffffffffff168373ffffffffffffffffffffffffffffffffffffffff1603611834576040517f08c379a000000000000000000000000000000000000000000000000000000000815260040161182b9061342b565b60405180910390fd5b600061183e610e08565b9050600061184b84611bee565b9050600061185884611bee565b9050611877838760008560405180602001604052806000815250611a09565b600080600087815260200190815260200160002060008873ffffffffffffffffffffffffffffffffffffffff1673ffffffffffffffffffffffffffffffffffffffff1681526020019081526020016000205490508481101561190e576040517f08c379a0000000000000000000000000000000000000000000000000000000008152600401611905906134bd565b60405180910390fd5b84810360008088815260200190815260200160002060008973ffffffffffffffffffffffffffffffffffffffff1673ffffffffffffffffffffffffffffffffffffffff16815260200190815260200160002081905550600073ffffffffffffffffffffffffffffffffffffffff168773ffffffffffffffffffffffffffffffffffffffff168573ffffffffffffffffffffffffffffffffffffffff167fc3d58168c5ae7397731d063d5bbf3d657854427343f4c083240f7aacaa2d0f6289896040516119db929190613390565b60405180910390a4611a00848860008660405180602001604052806000815250611a10565b50505050505050565b5050505050565b5050505050565b611a368473ffffffffffffffffffffffffffffffffffffffff16611e3f565b15611be6578373ffffffffffffffffffffffffffffffffffffffff1663bc197c8187878686866040518663ffffffff1660e01b8152600401611a7c959493929190613532565b6020604051808303816000875af1925050508015611ab857506040513d601f19601f82011682018060405250810190611ab591906135af565b60015b611b5d57611ac46135e9565b806308c379a003611b205750611ad861360b565b80611ae35750611b22565b806040517f08c379a0000000000000000000000000000000000000000000000000000000008152600401611b179190612186565b60405180910390fd5b505b6040517f08c379a0000000000000000000000000000000000000000000000000000000008152600401611b549061370d565b60405180910390fd5b63bc197c8160e01b7bffffffffffffffffffffffffffffffffffffffffffffffffffffffff1916817bffffffffffffffffffffffffffffffffffffffffffffffffffffffff191614611be4576040517f08c379a0000000000000000000000000000000000000000000000000000000008152600401611bdb9061379f565b60405180910390fd5b505b505050505050565b60606000600167ffffffffffffffff811115611c0d57611c0c6121da565b5b604051908082528060200260200182016040528015611c3b5781602001602082028036833780820191505090505b5090508281600081518110611c5357611c52612c57565b5b60200260200101818152505080915050919050565b611c878473ffffffffffffffffffffffffffffffffffffffff16611e3f565b15611e37578373ffffffffffffffffffffffffffffffffffffffff1663f23a6e6187878686866040518663ffffffff1660e01b8152600401611ccd9594939291906137bf565b6020604051808303816000875af1925050508015611d0957506040513d601f19601f82011682018060405250810190611d0691906135af565b60015b611dae57611d156135e9565b806308c379a003611d715750611d2961360b565b80611d345750611d73565b806040517f08c379a0000000000000000000000000000000000000000000000000000000008152600401611d689190612186565b60405180910390fd5b505b6040517f08c379a0000000000000000000000000000000000000000000000000000000008152600401611da59061370d565b60405180910390fd5b63f23a6e6160e01b7bffffffffffffffffffffffffffffffffffffffffffffffffffffffff1916817bffffffffffffffffffffffffffffffffffffffffffffffffffffffff191614611e35576040517f08c379a0000000000000000000000000000000000000000000000000000000008152600401611e2c9061379f565b60405180910390fd5b505b505050505050565b6000808273ffffffffffffffffffffffffffffffffffffffff163b119050919050565b508054611e6e90612b02565b6000825580601f10611e805750611e9f565b601f016020900490600052602060002090810190611e9e9190611ec6565b5b50565b5080546000825560020290600052602060002090810190611ec39190611ee3565b50565b5b80821115611edf576000816000905550600101611ec7565b5090565b5b80821115611f2557600080820160006101000a81549073ffffffffffffffffffffffffffffffffffffffff0219169055600182016000905550600201611ee4565b5090565b6000604051905090565b600080fd5b600080fd5b600073ffffffffffffffffffffffffffffffffffffffff82169050919050565b6000611f6882611f3d565b9050919050565b611f7881611f5d565b8114611f8357600080fd5b50565b600081359050611f9581611f6f565b92915050565b6000819050919050565b611fae81611f9b565b8114611fb957600080fd5b50565b600081359050611fcb81611fa5565b92915050565b60008060408385031215611fe857611fe7611f33565b5b6000611ff685828601611f86565b925050602061200785828601611fbc565b9150509250929050565b61201a81611f9b565b82525050565b60006020820190506120356000830184612011565b92915050565b60007fffffffff0000000000000000000000000000000000000000000000000000000082169050919050565b6120708161203b565b811461207b57600080fd5b50565b60008135905061208d81612067565b92915050565b6000602082840312156120a9576120a8611f33565b5b60006120b78482850161207e565b91505092915050565b60008115159050919050565b6120d5816120c0565b82525050565b60006020820190506120f060008301846120cc565b92915050565b600081519050919050565b600082825260208201905092915050565b60005b83811015612130578082015181840152602081019050612115565b60008484015250505050565b6000601f19601f8301169050919050565b6000612158826120f6565b6121628185612101565b9350612172818560208601612112565b61217b8161213c565b840191505092915050565b600060208201905081810360008301526121a0818461214d565b905092915050565b6000602082840312156121be576121bd611f33565b5b60006121cc84828501611fbc565b91505092915050565b600080fd5b7f4e487b7100000000000000000000000000000000000000000000000000000000600052604160045260246000fd5b6122128261213c565b810181811067ffffffffffffffff82111715612231576122306121da565b5b80604052505050565b6000612244611f29565b90506122508282612209565b919050565b600067ffffffffffffffff8211156122705761226f6121da565b5b602082029050602081019050919050565b600080fd5b600061229961229484612255565b61223a565b905080838252602082019050602084028301858111156122bc576122bb612281565b5b835b818110156122e557806122d18882611fbc565b8452602084019350506020810190506122be565b5050509392505050565b600082601f830112612304576123036121d5565b5b8135612314848260208601612286565b91505092915050565b600080fd5b600067ffffffffffffffff82111561233d5761233c6121da565b5b6123468261213c565b9050602081019050919050565b82818337600083830152505050565b600061237561237084612322565b61223a565b9050828152602081018484840111156123915761239061231d565b5b61239c848285612353565b509392505050565b600082601f8301126123b9576123b86121d5565b5b81356123c9848260208601612362565b91505092915050565b600080600080600060a086880312156123ee576123ed611f33565b5b60006123fc88828901611f86565b955050602061240d88828901611f86565b945050604086013567ffffffffffffffff81111561242e5761242d611f38565b5b61243a888289016122ef565b935050606086013567ffffffffffffffff81111561245b5761245a611f38565b5b612467888289016122ef565b925050608086013567ffffffffffffffff81111561248857612487611f38565b5b612494888289016123a4565b9150509295509295909350565b600067ffffffffffffffff8211156124bc576124bb6121da565b5b602082029050602081019050919050565b60006124e06124db846124a1565b61223a565b9050808382526020820190506020840283018581111561250357612502612281565b5b835b8181101561252c57806125188882611f86565b845260208401935050602081019050612505565b5050509392505050565b600082601f83011261254b5761254a6121d5565b5b813561255b8482602086016124cd565b91505092915050565b6000806040838503121561257b5761257a611f33565b5b600083013567ffffffffffffffff81111561259957612598611f38565b5b6125a585828601612536565b925050602083013567ffffffffffffffff8111156125c6576125c5611f38565b5b6125d2858286016122ef565b9150509250929050565b600081519050919050565b600082825260208201905092915050565b6000819050602082019050919050565b61261181611f9b565b82525050565b60006126238383612608565b60208301905092915050565b6000602082019050919050565b6000612647826125dc565b61265181856125e7565b935061265c836125f8565b8060005b8381101561268d5781516126748882612617565b975061267f8361262f565b925050600181019050612660565b5085935050505092915050565b600060208201905081810360008301526126b4818461263c565b905092915050565b600080604083850312156126d3576126d2611f33565b5b60006126e185828601611fbc565b92505060206126f285828601611fbc565b9150509250929050565b61270581611f5d565b82525050565b600060408201905061272060008301856126fc565b61272d6020830184612011565b9392505050565b600060208201905061274960008301846126fc565b92915050565b600067ffffffffffffffff82111561276a576127696121da565b5b6127738261213c565b9050602081019050919050565b600061279361278e8461274f565b61223a565b9050828152602081018484840111156127af576127ae61231d565b5b6127ba848285612353565b509392505050565b600082601f8301126127d7576127d66121d5565b5b81356127e7848260208601612780565b91505092915050565b6000806000806080858703121561280a57612809611f33565b5b600061281887828801611f86565b945050602085013567ffffffffffffffff81111561283957612838611f38565b5b612845878288016127c2565b935050604085013567ffffffffffffffff81111561286657612865611f38565b5b61287287828801612536565b925050606085013567ffffffffffffffff81111561289357612892611f38565b5b61289f878288016122ef565b91505092959194509250565b6128b4816120c0565b81146128bf57600080fd5b50565b6000813590506128d1816128ab565b92915050565b600080604083850312156128ee576128ed611f33565b5b60006128fc85828601611f86565b925050602061290d858286016128c2565b9150509250929050565b6000806040838503121561292e5761292d611f33565b5b600061293c85828601611f86565b925050602061294d85828601611f86565b9150509250929050565b600080600080600060a0868803121561297357612972611f33565b5b600061298188828901611f86565b955050602061299288828901611f86565b94505060406129a388828901611fbc565b93505060606129b488828901611fbc565b925050608086013567ffffffffffffffff8111156129d5576129d4611f38565b5b6129e1888289016123a4565b9150509295509295909350565b600080600060608486031215612a0757612a06611f33565b5b6000612a1586828701611f86565b9350506020612a2686828701611fbc565b9250506040612a3786828701611fbc565b9150509250925092565b7f455243313135353a2061646472657373207a65726f206973206e6f742061207660008201527f616c6964206f776e657200000000000000000000000000000000000000000000602082015250565b6000612a9d602a83612101565b9150612aa882612a41565b604082019050919050565b60006020820190508181036000830152612acc81612a90565b9050919050565b7f4e487b7100000000000000000000000000000000000000000000000000000000600052602260045260246000fd5b60006002820490506001821680612b1a57607f821691505b602082108103612b2d57612b2c612ad3565b5b50919050565b7f455243313135353a2063616c6c6572206973206e6f7420746f6b656e206f776e60008201527f6572206f7220617070726f766564000000000000000000000000000000000000602082015250565b6000612b8f602e83612101565b9150612b9a82612b33565b604082019050919050565b60006020820190508181036000830152612bbe81612b82565b9050919050565b7f455243313135353a206163636f756e747320616e6420696473206c656e67746860008201527f206d69736d617463680000000000000000000000000000000000000000000000602082015250565b6000612c21602983612101565b9150612c2c82612bc5565b604082019050919050565b60006020820190508181036000830152612c5081612c14565b9050919050565b7f4e487b7100000000000000000000000000000000000000000000000000000000600052603260045260246000fd5b7f4e487b7100000000000000000000000000000000000000000000000000000000600052601160045260246000fd5b6000612cc082611f9b565b91507fffffffffffffffffffffffffffffffffffffffffffffffffffffffffffffffff8203612cf257612cf1612c86565b5b600182019050919050565b7f455243313135353a2069647320616e6420616d6f756e7473206c656e6774682060008201527f6d69736d61746368000000000000000000000000000000000000000000000000602082015250565b6000612d59602883612101565b9150612d6482612cfd565b604082019050919050565b60006020820190508181036000830152612d8881612d4c565b9050919050565b7f455243313135353a207472616e7366657220746f20746865207a65726f20616460008201527f6472657373000000000000000000000000000000000000000000000000000000602082015250565b6000612deb602583612101565b9150612df682612d8f565b604082019050919050565b60006020820190508181036000830152612e1a81612dde565b9050919050565b7f455243313135353a20696e73756666696369656e742062616c616e636520666f60008201527f72207472616e7366657200000000000000000000000000000000000000000000602082015250565b6000612e7d602a83612101565b9150612e8882612e21565b604082019050919050565b60006020820190508181036000830152612eac81612e70565b9050919050565b6000612ebe82611f9b565b9150612ec983611f9b565b9250828201905080821115612ee157612ee0612c86565b5b92915050565b60006040820190508181036000830152612f01818561263c565b90508181036020830152612f15818461263c565b90509392505050565b7f4f6e6c79466163746f7279000000000000000000000000000000000000000000600082015250565b6000612f54600b83612101565b9150612f5f82612f1e565b602082019050919050565b60006020820190508181036000830152612f8381612f47565b9050919050565b7f455243313135353a206d696e7420746f20746865207a65726f2061646472657360008201527f7300000000000000000000000000000000000000000000000000000000000000602082015250565b6000612fe6602183612101565b9150612ff182612f8a565b604082019050919050565b6000602082019050818103600083015261301581612fd9565b9050919050565b6000819050919050565b6000819050919050565b600061304b6130466130418461301c565b613026565b611f9b565b9050919050565b61305b81613030565b82525050565b60006040820190506130766000830185612011565b6130836020830184613052565b9392505050565b60008190508160005260206000209050919050565b60006020601f8301049050919050565b600082821b905092915050565b6000600883026130ec7fffffffffffffffffffffffffffffffffffffffffffffffffffffffffffffffff826130af565b6130f686836130af565b95508019841693508086168417925050509392505050565b600061312961312461311f84611f9b565b613026565b611f9b565b9050919050565b6000819050919050565b6131438361310e565b61315761314f82613130565b8484546130bc565b825550505050565b600090565b61316c61315f565b61317781848461313a565b505050565b5b8181101561319b57613190600082613164565b60018101905061317d565b5050565b601f8211156131e0576131b18161308a565b6131ba8461309f565b810160208510156131c9578190505b6131dd6131d58561309f565b83018261317c565b50505b505050565b600082821c905092915050565b6000613203600019846008026131e5565b1980831691505092915050565b600061321c83836131f2565b9150826002028217905092915050565b613235826120f6565b67ffffffffffffffff81111561324e5761324d6121da565b5b6132588254612b02565b61326382828561319f565b600060209050601f8311600181146132965760008415613284578287015190505b61328e8582613210565b8655506132f6565b601f1984166132a48661308a565b60005b828110156132cc578489015182556001820191506020850194506020810190506132a7565b868310156132e957848901516132e5601f8916826131f2565b8355505b6001600288020188555050505b505050505050565b7f455243313135353a2073657474696e6720617070726f76616c2073746174757360008201527f20666f722073656c660000000000000000000000000000000000000000000000602082015250565b600061335a602983612101565b9150613365826132fe565b604082019050919050565b600060208201905081810360008301526133898161334d565b9050919050565b60006040820190506133a56000830185612011565b6133b26020830184612011565b9392505050565b7f455243313135353a206275726e2066726f6d20746865207a65726f206164647260008201527f6573730000000000000000000000000000000000000000000000000000000000602082015250565b6000613415602383612101565b9150613420826133b9565b604082019050919050565b6000602082019050818103600083015261344481613408565b9050919050565b7f455243313135353a206275726e20616d6f756e7420657863656564732062616c60008201527f616e636500000000000000000000000000000000000000000000000000000000602082015250565b60006134a7602483612101565b91506134b28261344b565b604082019050919050565b600060208201905081810360008301526134d68161349a565b9050919050565b600081519050919050565b600082825260208201905092915050565b6000613504826134dd565b61350e81856134e8565b935061351e818560208601612112565b6135278161213c565b840191505092915050565b600060a08201905061354760008301886126fc565b61355460208301876126fc565b8181036040830152613566818661263c565b9050818103606083015261357a818561263c565b9050818103608083015261358e81846134f9565b90509695505050505050565b6000815190506135a981612067565b92915050565b6000602082840312156135c5576135c4611f33565b5b60006135d38482850161359a565b91505092915050565b60008160e01c9050919050565b600060033d11156136085760046000803e6136056000516135dc565b90505b90565b600060443d106136985761361d611f29565b60043d036004823e80513d602482011167ffffffffffffffff82111715613645575050613698565b808201805167ffffffffffffffff8111156136635750505050613698565b80602083010160043d038501811115613680575050505050613698565b61368f82602001850186612209565b82955050505050505b90565b7f455243313135353a207472616e7366657220746f206e6f6e2d4552433131353560008201527f526563656976657220696d706c656d656e746572000000000000000000000000602082015250565b60006136f7603483612101565b91506137028261369b565b604082019050919050565b60006020820190508181036000830152613726816136ea565b9050919050565b7f455243313135353a204552433131353552656365697665722072656a6563746560008201527f6420746f6b656e73000000000000000000000000000000000000000000000000602082015250565b6000613789602883612101565b91506137948261372d565b604082019050919050565b600060208201905081810360008301526137b88161377c565b9050919050565b600060a0820190506137d460008301886126fc565b6137e160208301876126fc565b6137ee6040830186612011565b6137fb6060830185612011565b818103608083015261380d81846134f9565b9050969550505050505056fea2646970667358221220be6d8ae5c8c3ad67679861630f95ddf078911147e345574b31b8be4a310f67cb64736f6c63430008110033",
  "linkReferences": {},
  "deployedLinkReferences": {}
}