{
  "_format": "hh-sol-artifact-1",
  "contractName": "YoursFactory",
  "sourceName": "contracts/YoursFactory.sol",
  "abi": [
    {
      "inputs": [
        {
          "internalType": "address",
          "name": "_base",
          "type": "address"
        }
      ],
      "stateMutability": "nonpayable",
      "type": "constructor"
    },
    {
      "anonymous": false,
      "inputs": [
        {
          "indexed": false,
          "internalType": "address",
          "name": "_newClone",
          "type": "address"
        },
        {
          "indexed": false,
          "internalType": "address",
          "name": "_owner",
          "type": "address"
        }
      ],
      "name": "DeployNFT",
      "type": "event"
    },
    {
      "anonymous": false,
      "inputs": [
        {
          "indexed": false,
          "internalType": "uint256",
          "name": "",
          "type": "uint256"
        }
      ],
      "name": "MintIntegratedNFT",
      "type": "event"
    },
    {
      "anonymous": false,
      "inputs": [
        {
          "indexed": false,
          "internalType": "address",
          "name": "nftAddress",
          "type": "address"
        },
        {
          "indexed": false,
          "internalType": "uint256",
          "name": "id",
          "type": "uint256"
        }
      ],
      "name": "test",
      "type": "event"
    },
    {
      "inputs": [],
      "name": "baseContract",
      "outputs": [
        {
          "internalType": "address",
          "name": "",
          "type": "address"
        }
      ],
      "stateMutability": "view",
      "type": "function"
    },
    {
      "inputs": [
        {
          "internalType": "address",
          "name": "_addr",
          "type": "address"
        },
        {
          "internalType": "uint256",
          "name": "_Id",
          "type": "uint256"
        }
      ],
      "name": "burnIntegratedNFT",
      "outputs": [],
      "stateMutability": "nonpayable",
      "type": "function"
    },
    {
      "inputs": [
        {
          "internalType": "string",
          "name": "_name",
          "type": "string"
        },
        {
          "internalType": "string",
          "name": "_symbol",
          "type": "string"
        },
        {
          "internalType": "string",
          "name": "_uri",
          "type": "string"
        },
        {
          "internalType": "string",
          "name": "_benefitURI",
          "type": "string"
        },
        {
          "internalType": "uint128[]",
          "name": "_defaultBenefit",
          "type": "uint128[]"
        }
      ],
      "name": "deployNFT",
      "outputs": [],
      "stateMutability": "nonpayable",
      "type": "function"
    },
    {
      "inputs": [
        {
          "internalType": "address",
          "name": "_to",
          "type": "address"
        },
        {
          "internalType": "string",
          "name": "_uri",
          "type": "string"
        },
        {
          "internalType": "address[]",
          "name": "_nftAddresses",
          "type": "address[]"
        },
        {
          "internalType": "uint256[]",
          "name": "_nftIds",
          "type": "uint256[]"
        }
      ],
      "name": "integrateNFTs",
      "outputs": [],
      "stateMutability": "nonpayable",
      "type": "function"
    },
    {
      "inputs": [],
      "name": "interNFTFactory",
      "outputs": [
        {
          "internalType": "address",
          "name": "",
          "type": "address"
        }
      ],
      "stateMutability": "view",
      "type": "function"
    },
    {
      "inputs": [],
      "name": "isPaused",
      "outputs": [
        {
          "internalType": "uint256",
          "name": "",
          "type": "uint256"
        }
      ],
      "stateMutability": "view",
      "type": "function"
    },
    {
      "inputs": [
        {
          "internalType": "uint256",
          "name": "",
          "type": "uint256"
        }
      ],
      "name": "nfts",
      "outputs": [
        {
          "internalType": "address",
          "name": "creator",
          "type": "address"
        },
        {
          "internalType": "address",
          "name": "nftAddress",
          "type": "address"
        }
      ],
      "stateMutability": "view",
      "type": "function"
    },
    {
      "inputs": [],
      "name": "owner",
      "outputs": [
        {
          "internalType": "address",
          "name": "",
          "type": "address"
        }
      ],
      "stateMutability": "view",
      "type": "function"
    },
    {
      "inputs": [
        {
          "internalType": "address",
          "name": "_newAdd",
          "type": "address"
        }
      ],
      "name": "setBase",
      "outputs": [],
      "stateMutability": "nonpayable",
      "type": "function"
    },
    {
      "inputs": [
        {
          "internalType": "address",
          "name": "_newAdd",
          "type": "address"
        }
      ],
      "name": "setIntegratedNFT",
      "outputs": [],
      "stateMutability": "nonpayable",
      "type": "function"
    },
    {
      "inputs": [
        {
          "internalType": "address",
          "name": "_newAdd",
          "type": "address"
        }
      ],
      "name": "setOwner",
      "outputs": [],
      "stateMutability": "nonpayable",
      "type": "function"
    },
    {
      "inputs": [],
      "name": "setPaused",
      "outputs": [],
      "stateMutability": "nonpayable",
      "type": "function"
    }
  ],
  "bytecode": "0x60806040523480156200001157600080fd5b5060405162001d7c38038062001d7c833981810160405281019062000037919062000131565b336000806101000a81548173ffffffffffffffffffffffffffffffffffffffff021916908373ffffffffffffffffffffffffffffffffffffffff16021790555080600160006101000a81548173ffffffffffffffffffffffffffffffffffffffff021916908373ffffffffffffffffffffffffffffffffffffffff16021790555060006003819055505062000163565b600080fd5b600073ffffffffffffffffffffffffffffffffffffffff82169050919050565b6000620000f982620000cc565b9050919050565b6200010b81620000ec565b81146200011757600080fd5b50565b6000815190506200012b8162000100565b92915050565b6000602082840312156200014a5762000149620000c7565b5b60006200015a848285016200011a565b91505092915050565b611c0980620001736000396000f3fe608060405234801561001057600080fd5b50600436106100b45760003560e01c80638da5cb5b116100715780638da5cb5b1461016657806398643e5014610184578063ae8cda9a146101a2578063b187bd26146101be578063be17fe62146101dc578063c6ec4111146101f8576100b4565b806303aac2bf146100b957806313af4035146100d557806326491446146100f1578063265aa6211461010d57806337a66d851461013e5780635b32619c14610148575b600080fd5b6100d360048036038101906100ce9190610f19565b610214565b005b6100ef60048036038101906100ea919061107e565b610447565b005b61010b600480360381019061010691906110e1565b610492565b005b61012760048036038101906101229190611121565b610777565b60405161013592919061115d565b60405180910390f35b6101466107db565b005b610150610823565b60405161015d9190611186565b60405180910390f35b61016e610849565b60405161017b9190611186565b60405180910390f35b61018c61086d565b6040516101999190611186565b60405180910390f35b6101bc60048036038101906101b79190611327565b610893565b005b6101c6610ab3565b6040516101d391906113f1565b60405180910390f35b6101f660048036038101906101f1919061107e565b610acd565b005b610212600480360381019061020d919061107e565b610b19565b005b6000600260149054906101000a900460ff1660ff1614610269576040517f08c379a000000000000000000000000000000000000000000000000000000000815260040161026090611469565b60405180910390fd5b6000610296600160009054906101000a900473ffffffffffffffffffffffffffffffffffffffff16610b65565b905060405180604001604052803373ffffffffffffffffffffffffffffffffffffffff1681526020018273ffffffffffffffffffffffffffffffffffffffff16815250600460006003600081546102ec906114b8565b919050819055815260200190815260200160002060008201518160000160006101000a81548173ffffffffffffffffffffffffffffffffffffffff021916908373ffffffffffffffffffffffffffffffffffffffff16021790555060208201518160010160006101000a81548173ffffffffffffffffffffffffffffffffffffffff021916908373ffffffffffffffffffffffffffffffffffffffff1602179055509050508073ffffffffffffffffffffffffffffffffffffffff16632e5a55c93388888888886040518763ffffffff1660e01b81526004016103d49695949392919061162c565b600060405180830381600087803b1580156103ee57600080fd5b505af1158015610402573d6000803e3d6000fd5b505050507f8abf7cfa8fefb4d85e1fee7597b1e9a2c02eb2d678393fc13f20fd3175cb6292813360405161043792919061115d565b60405180910390a1505050505050565b61044f610c1f565b806000806101000a81548173ffffffffffffffffffffffffffffffffffffffff021916908373ffffffffffffffffffffffffffffffffffffffff16021790555050565b61049a610c1f565b6000600260009054906101000a900473ffffffffffffffffffffffffffffffffffffffff1673ffffffffffffffffffffffffffffffffffffffff16630986e6476003546040518263ffffffff1660e01b81526004016104f991906113f1565b602060405180830381865afa158015610516573d6000803e3d6000fd5b505050506040513d601f19601f8201168201806040525081019061053a91906116c5565b90506000600167ffffffffffffffff81111561055957610558610cde565b5b6040519080825280602002602001820160405280156105875781602001602082028036833780820191505090505b50905060005b828110156106de57600080600260009054906101000a900473ffffffffffffffffffffffffffffffffffffffff1673ffffffffffffffffffffffffffffffffffffffff166356a938018760006040518363ffffffff1660e01b81526004016105f6929190611737565b6040805180830381865afa158015610612573d6000803e3d6000fd5b505050506040513d601f19601f820116820180604052508101906106369190611775565b91509150808460008151811061064f5761064e6117b5565b5b6020026020010181815250508173ffffffffffffffffffffffffffffffffffffffff16634ffb55838560006040518363ffffffff1660e01b81526004016106979291906118e0565b600060405180830381600087803b1580156106b157600080fd5b505af11580156106c5573d6000803e3d6000fd5b50505050505080806106d6906114b8565b91505061058d565b50600260009054906101000a900473ffffffffffffffffffffffffffffffffffffffff1673ffffffffffffffffffffffffffffffffffffffff1663f5298aca858560016040518463ffffffff1660e01b815260040161073f9392919061194b565b600060405180830381600087803b15801561075957600080fd5b505af115801561076d573d6000803e3d6000fd5b5050505050505050565b60046020528060005260406000206000915090508060000160009054906101000a900473ffffffffffffffffffffffffffffffffffffffff16908060010160009054906101000a900473ffffffffffffffffffffffffffffffffffffffff16905082565b6107e3610c1f565b6000600260149054906101000a900460ff1660ff1614610804576000610807565b60015b600260146101000a81548160ff021916908360ff160217905550565b600160009054906101000a900473ffffffffffffffffffffffffffffffffffffffff1681565b60008054906101000a900473ffffffffffffffffffffffffffffffffffffffff1681565b600260009054906101000a900473ffffffffffffffffffffffffffffffffffffffff1681565b61089b610c1f565b6000600167ffffffffffffffff8111156108b8576108b7610cde565b5b6040519080825280602002602001820160405280156108e65781602001602082028036833780820191505090505b50905060005b83518110156109cb57828181518110610908576109076117b5565b5b602002602001015182600081518110610924576109236117b5565b5b602002602001018181525050838181518110610943576109426117b5565b5b602002602001015173ffffffffffffffffffffffffffffffffffffffff16634ffb55838360016040518363ffffffff1660e01b81526004016109869291906119b3565b600060405180830381600087803b1580156109a057600080fd5b505af11580156109b4573d6000803e3d6000fd5b5050505080806109c3906114b8565b9150506108ec565b506000600260009054906101000a900473ffffffffffffffffffffffffffffffffffffffff1673ffffffffffffffffffffffffffffffffffffffff16639ccf15a6878787876040518563ffffffff1660e01b8152600401610a2f9493929190611aa1565b6020604051808303816000875af1158015610a4e573d6000803e3d6000fd5b505050506040513d601f19601f82011682018060405250810190610a7291906116c5565b90507fafebac9b22e6fb787eed07f536742afb3f168d83419ce64ec150bda1375e22f381604051610aa391906113f1565b60405180910390a1505050505050565b6000600260149054906101000a900460ff1660ff16905090565b610ad5610c1f565b80600160006101000a81548173ffffffffffffffffffffffffffffffffffffffff021916908373ffffffffffffffffffffffffffffffffffffffff16021790555050565b610b21610c1f565b80600260006101000a81548173ffffffffffffffffffffffffffffffffffffffff021916908373ffffffffffffffffffffffffffffffffffffffff16021790555050565b6000763d602d80600a3d3981f3363d3d373d3d3d363d730000008260601b60e81c176000526e5af43d82803e903d91602b57fd5bf38260781b17602052603760096000f09050600073ffffffffffffffffffffffffffffffffffffffff168173ffffffffffffffffffffffffffffffffffffffff1603610c1a576040517f08c379a0000000000000000000000000000000000000000000000000000000008152600401610c1190611b47565b60405180910390fd5b919050565b3373ffffffffffffffffffffffffffffffffffffffff1660008054906101000a900473ffffffffffffffffffffffffffffffffffffffff1673ffffffffffffffffffffffffffffffffffffffff1614610cad576040517f08c379a0000000000000000000000000000000000000000000000000000000008152600401610ca490611bb3565b60405180910390fd5b565b6000604051905090565b600080fd5b600080fd5b600080fd5b600080fd5b6000601f19601f8301169050919050565b7f4e487b7100000000000000000000000000000000000000000000000000000000600052604160045260246000fd5b610d1682610ccd565b810181811067ffffffffffffffff82111715610d3557610d34610cde565b5b80604052505050565b6000610d48610caf565b9050610d548282610d0d565b919050565b600067ffffffffffffffff821115610d7457610d73610cde565b5b610d7d82610ccd565b9050602081019050919050565b82818337600083830152505050565b6000610dac610da784610d59565b610d3e565b905082815260208101848484011115610dc857610dc7610cc8565b5b610dd3848285610d8a565b509392505050565b600082601f830112610df057610def610cc3565b5b8135610e00848260208601610d99565b91505092915050565b600067ffffffffffffffff821115610e2457610e23610cde565b5b602082029050602081019050919050565b600080fd5b60006fffffffffffffffffffffffffffffffff82169050919050565b610e5f81610e3a565b8114610e6a57600080fd5b50565b600081359050610e7c81610e56565b92915050565b6000610e95610e9084610e09565b610d3e565b90508083825260208201905060208402830185811115610eb857610eb7610e35565b5b835b81811015610ee15780610ecd8882610e6d565b845260208401935050602081019050610eba565b5050509392505050565b600082601f830112610f0057610eff610cc3565b5b8135610f10848260208601610e82565b91505092915050565b600080600080600060a08688031215610f3557610f34610cb9565b5b600086013567ffffffffffffffff811115610f5357610f52610cbe565b5b610f5f88828901610ddb565b955050602086013567ffffffffffffffff811115610f8057610f7f610cbe565b5b610f8c88828901610ddb565b945050604086013567ffffffffffffffff811115610fad57610fac610cbe565b5b610fb988828901610ddb565b935050606086013567ffffffffffffffff811115610fda57610fd9610cbe565b5b610fe688828901610ddb565b925050608086013567ffffffffffffffff81111561100757611006610cbe565b5b61101388828901610eeb565b9150509295509295909350565b600073ffffffffffffffffffffffffffffffffffffffff82169050919050565b600061104b82611020565b9050919050565b61105b81611040565b811461106657600080fd5b50565b60008135905061107881611052565b92915050565b60006020828403121561109457611093610cb9565b5b60006110a284828501611069565b91505092915050565b6000819050919050565b6110be816110ab565b81146110c957600080fd5b50565b6000813590506110db816110b5565b92915050565b600080604083850312156110f8576110f7610cb9565b5b600061110685828601611069565b9250506020611117858286016110cc565b9150509250929050565b60006020828403121561113757611136610cb9565b5b6000611145848285016110cc565b91505092915050565b61115781611040565b82525050565b6000604082019050611172600083018561114e565b61117f602083018461114e565b9392505050565b600060208201905061119b600083018461114e565b92915050565b600067ffffffffffffffff8211156111bc576111bb610cde565b5b602082029050602081019050919050565b60006111e06111db846111a1565b610d3e565b9050808382526020820190506020840283018581111561120357611202610e35565b5b835b8181101561122c57806112188882611069565b845260208401935050602081019050611205565b5050509392505050565b600082601f83011261124b5761124a610cc3565b5b813561125b8482602086016111cd565b91505092915050565b600067ffffffffffffffff82111561127f5761127e610cde565b5b602082029050602081019050919050565b60006112a361129e84611264565b610d3e565b905080838252602082019050602084028301858111156112c6576112c5610e35565b5b835b818110156112ef57806112db88826110cc565b8452602084019350506020810190506112c8565b5050509392505050565b600082601f83011261130e5761130d610cc3565b5b813561131e848260208601611290565b91505092915050565b6000806000806080858703121561134157611340610cb9565b5b600061134f87828801611069565b945050602085013567ffffffffffffffff8111156113705761136f610cbe565b5b61137c87828801610ddb565b935050604085013567ffffffffffffffff81111561139d5761139c610cbe565b5b6113a987828801611236565b925050606085013567ffffffffffffffff8111156113ca576113c9610cbe565b5b6113d6878288016112f9565b91505092959194509250565b6113eb816110ab565b82525050565b600060208201905061140660008301846113e2565b92915050565b600082825260208201905092915050565b7f436f6e7472616374206973207061757365640000000000000000000000000000600082015250565b600061145360128361140c565b915061145e8261141d565b602082019050919050565b6000602082019050818103600083015261148281611446565b9050919050565b7f4e487b7100000000000000000000000000000000000000000000000000000000600052601160045260246000fd5b60006114c3826110ab565b91507fffffffffffffffffffffffffffffffffffffffffffffffffffffffffffffffff82036114f5576114f4611489565b5b600182019050919050565b600081519050919050565b60005b8381101561152957808201518184015260208101905061150e565b60008484015250505050565b600061154082611500565b61154a818561140c565b935061155a81856020860161150b565b61156381610ccd565b840191505092915050565b600081519050919050565b600082825260208201905092915050565b6000819050602082019050919050565b6115a381610e3a565b82525050565b60006115b5838361159a565b60208301905092915050565b6000602082019050919050565b60006115d98261156e565b6115e38185611579565b93506115ee8361158a565b8060005b8381101561161f57815161160688826115a9565b9750611611836115c1565b9250506001810190506115f2565b5085935050505092915050565b600060c082019050611641600083018961114e565b81810360208301526116538188611535565b905081810360408301526116678187611535565b9050818103606083015261167b8186611535565b9050818103608083015261168f8185611535565b905081810360a08301526116a381846115ce565b9050979650505050505050565b6000815190506116bf816110b5565b92915050565b6000602082840312156116db576116da610cb9565b5b60006116e9848285016116b0565b91505092915050565b6000819050919050565b6000819050919050565b600061172161171c611717846116f2565b6116fc565b6110ab565b9050919050565b61173181611706565b82525050565b600060408201905061174c60008301856113e2565b6117596020830184611728565b9392505050565b60008151905061176f81611052565b92915050565b6000806040838503121561178c5761178b610cb9565b5b600061179a85828601611760565b92505060206117ab858286016116b0565b9150509250929050565b7f4e487b7100000000000000000000000000000000000000000000000000000000600052603260045260246000fd5b600081519050919050565b600082825260208201905092915050565b6000819050602082019050919050565b611819816110ab565b82525050565b600061182b8383611810565b60208301905092915050565b6000602082019050919050565b600061184f826117e4565b61185981856117ef565b935061186483611800565b8060005b8381101561189557815161187c888261181f565b975061188783611837565b925050600181019050611868565b5085935050505092915050565b600060ff82169050919050565b60006118ca6118c56118c0846116f2565b6116fc565b6118a2565b9050919050565b6118da816118af565b82525050565b600060408201905081810360008301526118fa8185611844565b905061190960208301846118d1565b9392505050565b6000819050919050565b600061193561193061192b84611910565b6116fc565b6110ab565b9050919050565b6119458161191a565b82525050565b6000606082019050611960600083018661114e565b61196d60208301856113e2565b61197a604083018461193c565b949350505050565b600061199d61199861199384611910565b6116fc565b6118a2565b9050919050565b6119ad81611982565b82525050565b600060408201905081810360008301526119cd8185611844565b90506119dc60208301846119a4565b9392505050565b600081519050919050565b600082825260208201905092915050565b6000819050602082019050919050565b611a1881611040565b82525050565b6000611a2a8383611a0f565b60208301905092915050565b6000602082019050919050565b6000611a4e826119e3565b611a5881856119ee565b9350611a63836119ff565b8060005b83811015611a94578151611a7b8882611a1e565b9750611a8683611a36565b925050600181019050611a67565b5085935050505092915050565b6000608082019050611ab6600083018761114e565b8181036020830152611ac88186611535565b90508181036040830152611adc8185611a43565b90508181036060830152611af08184611844565b905095945050505050565b7f455243313136373a20637265617465206661696c656400000000000000000000600082015250565b6000611b3160168361140c565b9150611b3c82611afb565b602082019050919050565b60006020820190508181036000830152611b6081611b24565b9050919050565b7f4e6f74204f776e65720000000000000000000000000000000000000000000000600082015250565b6000611b9d60098361140c565b9150611ba882611b67565b602082019050919050565b60006020820190508181036000830152611bcc81611b90565b905091905056fea2646970667358221220e0d6dd9c506cb8214c1a962e4920f11fec27feadeaf68a75e710f526242f7da964736f6c63430008110033",
  "linkReferences": {},
  "deployedLinkReferences": {}
}