{
  "_format": "hh-sol-artifact-1",
  "contractName": "YoursBenefitNFT",
  "sourceName": "contracts/YoursBenefitNFT.sol",
  "abi": [
    {
      "inputs": [],
      "stateMutability": "nonpayable",
      "type": "constructor"
    },
    {
      "anonymous": false,
      "inputs": [
        {
          "indexed": true,
          "internalType": "address",
          "name": "owner",
          "type": "address"
        },
        {
          "indexed": true,
          "internalType": "address",
          "name": "approved",
          "type": "address"
        },
        {
          "indexed": true,
          "internalType": "uint256",
          "name": "tokenId",
          "type": "uint256"
        }
      ],
      "name": "Approval",
      "type": "event"
    },
    {
      "anonymous": false,
      "inputs": [
        {
          "indexed": true,
          "internalType": "address",
          "name": "owner",
          "type": "address"
        },
        {
          "indexed": true,
          "internalType": "address",
          "name": "operator",
          "type": "address"
        },
        {
          "indexed": false,
          "internalType": "bool",
          "name": "approved",
          "type": "bool"
        }
      ],
      "name": "ApprovalForAll",
      "type": "event"
    },
    {
      "anonymous": false,
      "inputs": [
        {
          "indexed": false,
          "internalType": "string",
          "name": "",
          "type": "string"
        }
      ],
      "name": "ChangeBenefitsURI",
      "type": "event"
    },
    {
      "anonymous": false,
      "inputs": [
        {
          "indexed": false,
          "internalType": "uint256",
          "name": "",
          "type": "uint256"
        }
      ],
      "name": "Mint",
      "type": "event"
    },
    {
      "anonymous": false,
      "inputs": [
        {
          "indexed": true,
          "internalType": "address",
          "name": "from",
          "type": "address"
        },
        {
          "indexed": true,
          "internalType": "address",
          "name": "to",
          "type": "address"
        },
        {
          "indexed": true,
          "internalType": "uint256",
          "name": "tokenId",
          "type": "uint256"
        }
      ],
      "name": "Transfer",
      "type": "event"
    },
    {
      "inputs": [
        {
          "internalType": "address",
          "name": "to",
          "type": "address"
        },
        {
          "internalType": "uint256",
          "name": "tokenId",
          "type": "uint256"
        }
      ],
      "name": "approve",
      "outputs": [],
      "stateMutability": "nonpayable",
      "type": "function"
    },
    {
      "inputs": [
        {
          "internalType": "address",
          "name": "owner",
          "type": "address"
        }
      ],
      "name": "balanceOf",
      "outputs": [
        {
          "internalType": "uint256",
          "name": "",
          "type": "uint256"
        }
      ],
      "stateMutability": "view",
      "type": "function"
    },
    {
      "inputs": [],
      "name": "benefitURI",
      "outputs": [
        {
          "internalType": "string",
          "name": "",
          "type": "string"
        }
      ],
      "stateMutability": "view",
      "type": "function"
    },
    {
      "inputs": [
        {
          "internalType": "uint256",
          "name": "",
          "type": "uint256"
        },
        {
          "internalType": "uint256",
          "name": "",
          "type": "uint256"
        }
      ],
      "name": "benefits",
      "outputs": [
        {
          "internalType": "uint256",
          "name": "",
          "type": "uint256"
        }
      ],
      "stateMutability": "view",
      "type": "function"
    },
    {
      "inputs": [
        {
          "internalType": "uint256[]",
          "name": "_ids",
          "type": "uint256[]"
        },
        {
          "internalType": "uint256[]",
          "name": "_newBenefits",
          "type": "uint256[]"
        }
      ],
      "name": "changeBatchBenefits",
      "outputs": [],
      "stateMutability": "nonpayable",
      "type": "function"
    },
    {
      "inputs": [
        {
          "internalType": "uint256",
          "name": "_id",
          "type": "uint256"
        },
        {
          "internalType": "uint256[]",
          "name": "_newBenefits",
          "type": "uint256[]"
        }
      ],
      "name": "changeSingleBenefits",
      "outputs": [],
      "stateMutability": "nonpayable",
      "type": "function"
    },
    {
      "inputs": [
        {
          "internalType": "uint256",
          "name": "",
          "type": "uint256"
        }
      ],
      "name": "defaultBenefit",
      "outputs": [
        {
          "internalType": "uint128",
          "name": "",
          "type": "uint128"
        }
      ],
      "stateMutability": "view",
      "type": "function"
    },
    {
      "inputs": [],
      "name": "factory",
      "outputs": [
        {
          "internalType": "address",
          "name": "",
          "type": "address"
        }
      ],
      "stateMutability": "view",
      "type": "function"
    },
    {
      "inputs": [
        {
          "internalType": "uint256",
          "name": "tokenId",
          "type": "uint256"
        }
      ],
      "name": "getApproved",
      "outputs": [
        {
          "internalType": "address",
          "name": "",
          "type": "address"
        }
      ],
      "stateMutability": "view",
      "type": "function"
    },
    {
      "inputs": [
        {
          "internalType": "address",
          "name": "_owner",
          "type": "address"
        },
        {
          "internalType": "string",
          "name": "_name",
          "type": "string"
        },
        {
          "internalType": "string",
          "name": "_symbol",
          "type": "string"
        },
        {
          "internalType": "string",
          "name": "_uri",
          "type": "string"
        },
        {
          "internalType": "string",
          "name": "_benefitURI",
          "type": "string"
        },
        {
          "internalType": "uint128[]",
          "name": "_defaultBenefit",
          "type": "uint128[]"
        }
      ],
      "name": "initialize",
      "outputs": [],
      "stateMutability": "nonpayable",
      "type": "function"
    },
    {
      "inputs": [
        {
          "internalType": "address",
          "name": "owner",
          "type": "address"
        },
        {
          "internalType": "address",
          "name": "operator",
          "type": "address"
        }
      ],
      "name": "isApprovedForAll",
      "outputs": [
        {
          "internalType": "bool",
          "name": "",
          "type": "bool"
        }
      ],
      "stateMutability": "view",
      "type": "function"
    },
    {
      "inputs": [
        {
          "internalType": "address",
          "name": "_to",
          "type": "address"
        }
      ],
      "name": "mint",
      "outputs": [],
      "stateMutability": "nonpayable",
      "type": "function"
    },
    {
      "inputs": [],
      "name": "name",
      "outputs": [
        {
          "internalType": "string",
          "name": "",
          "type": "string"
        }
      ],
      "stateMutability": "view",
      "type": "function"
    },
    {
      "inputs": [],
      "name": "owner",
      "outputs": [
        {
          "internalType": "address",
          "name": "",
          "type": "address"
        }
      ],
      "stateMutability": "view",
      "type": "function"
    },
    {
      "inputs": [
        {
          "internalType": "uint256",
          "name": "tokenId",
          "type": "uint256"
        }
      ],
      "name": "ownerOf",
      "outputs": [
        {
          "internalType": "address",
          "name": "",
          "type": "address"
        }
      ],
      "stateMutability": "view",
      "type": "function"
    },
    {
      "inputs": [
        {
          "internalType": "address",
          "name": "from",
          "type": "address"
        },
        {
          "internalType": "address",
          "name": "to",
          "type": "address"
        },
        {
          "internalType": "uint256",
          "name": "tokenId",
          "type": "uint256"
        }
      ],
      "name": "safeTransferFrom",
      "outputs": [],
      "stateMutability": "nonpayable",
      "type": "function"
    },
    {
      "inputs": [
        {
          "internalType": "address",
          "name": "from",
          "type": "address"
        },
        {
          "internalType": "address",
          "name": "to",
          "type": "address"
        },
        {
          "internalType": "uint256",
          "name": "tokenId",
          "type": "uint256"
        },
        {
          "internalType": "bytes",
          "name": "data",
          "type": "bytes"
        }
      ],
      "name": "safeTransferFrom",
      "outputs": [],
      "stateMutability": "nonpayable",
      "type": "function"
    },
    {
      "inputs": [
        {
          "internalType": "address",
          "name": "operator",
          "type": "address"
        },
        {
          "internalType": "bool",
          "name": "approved",
          "type": "bool"
        }
      ],
      "name": "setApprovalForAll",
      "outputs": [],
      "stateMutability": "nonpayable",
      "type": "function"
    },
    {
      "inputs": [
        {
          "internalType": "string",
          "name": "_uri",
          "type": "string"
        }
      ],
      "name": "setBenefitsURI",
      "outputs": [],
      "stateMutability": "nonpayable",
      "type": "function"
    },
    {
      "inputs": [
        {
          "internalType": "uint256[]",
          "name": "_ids",
          "type": "uint256[]"
        },
        {
          "internalType": "uint8",
          "name": "_lock",
          "type": "uint8"
        }
      ],
      "name": "setLock",
      "outputs": [],
      "stateMutability": "nonpayable",
      "type": "function"
    },
    {
      "inputs": [
        {
          "internalType": "address",
          "name": "_newAdd",
          "type": "address"
        }
      ],
      "name": "setOwner",
      "outputs": [],
      "stateMutability": "nonpayable",
      "type": "function"
    },
    {
      "inputs": [
        {
          "internalType": "bytes4",
          "name": "interfaceId",
          "type": "bytes4"
        }
      ],
      "name": "supportsInterface",
      "outputs": [
        {
          "internalType": "bool",
          "name": "",
          "type": "bool"
        }
      ],
      "stateMutability": "view",
      "type": "function"
    },
    {
      "inputs": [],
      "name": "symbol",
      "outputs": [
        {
          "internalType": "string",
          "name": "",
          "type": "string"
        }
      ],
      "stateMutability": "view",
      "type": "function"
    },
    {
      "inputs": [
        {
          "internalType": "uint256",
          "name": "index",
          "type": "uint256"
        }
      ],
      "name": "tokenByIndex",
      "outputs": [
        {
          "internalType": "uint256",
          "name": "",
          "type": "uint256"
        }
      ],
      "stateMutability": "view",
      "type": "function"
    },
    {
      "inputs": [
        {
          "internalType": "address",
          "name": "owner",
          "type": "address"
        },
        {
          "internalType": "uint256",
          "name": "index",
          "type": "uint256"
        }
      ],
      "name": "tokenOfOwnerByIndex",
      "outputs": [
        {
          "internalType": "uint256",
          "name": "",
          "type": "uint256"
        }
      ],
      "stateMutability": "view",
      "type": "function"
    },
    {
      "inputs": [
        {
          "internalType": "uint256",
          "name": "_id",
          "type": "uint256"
        }
      ],
      "name": "tokenURI",
      "outputs": [
        {
          "internalType": "string",
          "name": "",
          "type": "string"
        }
      ],
      "stateMutability": "view",
      "type": "function"
    },
    {
      "inputs": [],
      "name": "totalSupply",
      "outputs": [
        {
          "internalType": "uint256",
          "name": "",
          "type": "uint256"
        }
      ],
      "stateMutability": "view",
      "type": "function"
    },
    {
      "inputs": [
        {
          "internalType": "address",
          "name": "from",
          "type": "address"
        },
        {
          "internalType": "address",
          "name": "to",
          "type": "address"
        },
        {
          "internalType": "uint256",
          "name": "tokenId",
          "type": "uint256"
        }
      ],
      "name": "transferFrom",
      "outputs": [],
      "stateMutability": "nonpayable",
      "type": "function"
    }
  ],
  "bytecode": "0x608060405234801561001057600080fd5b506001600a60006101000a81548160ff021916908360ff1602179055506142cf8061003c6000396000f3fe608060405234801561001057600080fd5b50600436106101c45760003560e01c806370a08231116100f9578063acf0bd4011610097578063c87b56dd11610071578063c87b56dd14610501578063c91712c914610531578063e985e9c51461054d578063fb80dbee1461057d576101c4565b8063acf0bd4014610497578063b88d4fde146104c7578063c45a0155146104e3576101c4565b806395d89b41116100d357806395d89b4114610425578063a22cb46514610443578063a6e1a8941461045f578063a737d8181461047b576101c4565b806370a08231146103b9578063720b0df0146103e95780638da5cb5b14610407576101c4565b80632e5a55c9116101665780634f6ccce7116101405780634f6ccce7146103215780634ffb5583146103515780636352211e1461036d5780636a6278421461039d576101c4565b80632e5a55c9146102b95780632f745c59146102d557806342842e0e14610305576101c4565b8063095ea7b3116101a2578063095ea7b31461024757806313af40351461026357806318160ddd1461027f57806323b872dd1461029d576101c4565b806301ffc9a7146101c957806306fdde03146101f9578063081812fc14610217575b600080fd5b6101e360048036038101906101de91906128b8565b6105ad565b6040516101f09190612900565b60405180910390f35b610201610627565b60405161020e91906129ab565b60405180910390f35b610231600480360381019061022c9190612a03565b6106b9565b60405161023e9190612a71565b60405180910390f35b610261600480360381019061025c9190612ab8565b6106ff565b005b61027d60048036038101906102789190612af8565b610816565b005b610287610862565b6040516102949190612b34565b60405180910390f35b6102b760048036038101906102b29190612b4f565b61086f565b005b6102d360048036038101906102ce9190612de7565b6108cf565b005b6102ef60048036038101906102ea9190612ab8565b610a88565b6040516102fc9190612b34565b60405180910390f35b61031f600480360381019061031a9190612b4f565b610b2d565b005b61033b60048036038101906103369190612a03565b610b4d565b6040516103489190612b34565b60405180910390f35b61036b60048036038101906103669190612ffc565b610bbe565b005b61038760048036038101906103829190612a03565b610c30565b6040516103949190612a71565b60405180910390f35b6103b760048036038101906103b29190612af8565b610cb6565b005b6103d360048036038101906103ce9190612af8565b610e24565b6040516103e09190612b34565b60405180910390f35b6103f1610edb565b6040516103fe91906129ab565b60405180910390f35b61040f610f69565b60405161041c9190612a71565b60405180910390f35b61042d610f8f565b60405161043a91906129ab565b60405180910390f35b61045d60048036038101906104589190613084565b611021565b005b610479600480360381019061047491906130c4565b611037565b005b6104956004803603810190610490919061313c565b6110a5565b005b6104b160048036038101906104ac9190613198565b6110d9565b6040516104be9190612b34565b60405180910390f35b6104e160048036038101906104dc9190613279565b61110a565b005b6104eb61116c565b6040516104f89190612a71565b60405180910390f35b61051b60048036038101906105169190612a03565b611192565b60405161052891906129ab565b60405180910390f35b61054b600480360381019061054691906132fc565b611226565b005b61056760048036038101906105629190613345565b611278565b6040516105749190612900565b60405180910390f35b61059760048036038101906105929190612a03565b61130c565b6040516105a49190613394565b60405180910390f35b60007f780e9d63000000000000000000000000000000000000000000000000000000007bffffffffffffffffffffffffffffffffffffffffffffffffffffffff1916827bffffffffffffffffffffffffffffffffffffffffffffffffffffffff19161480610620575061061f82611352565b5b9050919050565b606060008054610636906133de565b80601f0160208091040260200160405190810160405280929190818152602001828054610662906133de565b80156106af5780601f10610684576101008083540402835291602001916106af565b820191906000526020600020905b81548152906001019060200180831161069257829003601f168201915b5050505050905090565b60006106c482611434565b6004600083815260200190815260200160002060009054906101000a900473ffffffffffffffffffffffffffffffffffffffff169050919050565b600061070a82610c30565b90508073ffffffffffffffffffffffffffffffffffffffff168373ffffffffffffffffffffffffffffffffffffffff160361077a576040517f08c379a000000000000000000000000000000000000000000000000000000000815260040161077190613481565b60405180910390fd5b8073ffffffffffffffffffffffffffffffffffffffff1661079961147f565b73ffffffffffffffffffffffffffffffffffffffff1614806107c857506107c7816107c261147f565b611278565b5b610807576040517f08c379a00000000000000000000000000000000000000000000000000000000081526004016107fe90613513565b60405180910390fd5b6108118383611487565b505050565b61081e611540565b80600c60006101000a81548173ffffffffffffffffffffffffffffffffffffffff021916908373ffffffffffffffffffffffffffffffffffffffff16021790555050565b6000600880549050905090565b61088061087a61147f565b826115d2565b6108bf576040517f08c379a00000000000000000000000000000000000000000000000000000000081526004016108b6906135a5565b60405180910390fd5b6108ca838383611667565b505050565b6000600a60009054906101000a900460ff1660ff1614610924576040517f08c379a000000000000000000000000000000000000000000000000000000000815260040161091b90613611565b60405180910390fd5b600073ffffffffffffffffffffffffffffffffffffffff16600c60009054906101000a900473ffffffffffffffffffffffffffffffffffffffff1673ffffffffffffffffffffffffffffffffffffffff16146109b5576040517f08c379a00000000000000000000000000000000000000000000000000000000081526004016109ac9061367d565b60405180910390fd5b85600c60006101000a81548173ffffffffffffffffffffffffffffffffffffffff021916908373ffffffffffffffffffffffffffffffffffffffff16021790555033600d60006101000a81548173ffffffffffffffffffffffffffffffffffffffff021916908373ffffffffffffffffffffffffffffffffffffffff1602179055506000600e8190555082600f9081610a4e9190613849565b508160109081610a5e9190613849565b5080600b9080519060200190610a7592919061270e565b50610a808585611960565b505050505050565b6000610a9383610e24565b8210610ad4576040517f08c379a0000000000000000000000000000000000000000000000000000000008152600401610acb9061398d565b60405180910390fd5b600660008473ffffffffffffffffffffffffffffffffffffffff1673ffffffffffffffffffffffffffffffffffffffff168152602001908152602001600020600083815260200190815260200160002054905092915050565b610b488383836040518060200160405280600081525061110a565b505050565b6000610b57610862565b8210610b98576040517f08c379a0000000000000000000000000000000000000000000000000000000008152600401610b8f90613a1f565b60405180910390fd5b60088281548110610bac57610bab613a3f565b5b90600052602060002001549050919050565b610bc6611984565b60005b8251811015610c2b578160126000858481518110610bea57610be9613a3f565b5b6020026020010151815260200190815260200160002060006101000a81548160ff021916908360ff1602179055508080610c2390613a9d565b915050610bc9565b505050565b600080610c3c83611a16565b9050600073ffffffffffffffffffffffffffffffffffffffff168173ffffffffffffffffffffffffffffffffffffffff1603610cad576040517f08c379a0000000000000000000000000000000000000000000000000000000008152600401610ca490613b31565b60405180910390fd5b80915050919050565b6000600a60009054906101000a900460ff1660ff1614610d0b576040517f08c379a0000000000000000000000000000000000000000000000000000000008152600401610d0290613b9d565b60405180910390fd5b6000600e60008154610d1c90613a9d565b9190508190559050600060116000838152602001908152602001600020905060005b600b80549050811015610ddd5781600b8281548110610d6057610d5f613a3f565b5b90600052602060002090600291828204019190066010029054906101000a90046fffffffffffffffffffffffffffffffff1690806001815401808255809150506001900390600052602060002001600090916fffffffffffffffffffffffffffffffff169091909150558080610dd590613a9d565b915050610d3e565b50610de88383611a53565b7f07883703ed0e86588a40d76551c92f8a4b329e3bf19765e0e6749473c1a8466582604051610e179190612b34565b60405180910390a1505050565b60008073ffffffffffffffffffffffffffffffffffffffff168273ffffffffffffffffffffffffffffffffffffffff1603610e94576040517f08c379a0000000000000000000000000000000000000000000000000000000008152600401610e8b90613c2f565b60405180910390fd5b600360008373ffffffffffffffffffffffffffffffffffffffff1673ffffffffffffffffffffffffffffffffffffffff168152602001908152602001600020549050919050565b60108054610ee8906133de565b80601f0160208091040260200160405190810160405280929190818152602001828054610f14906133de565b8015610f615780601f10610f3657610100808354040283529160200191610f61565b820191906000526020600020905b815481529060010190602001808311610f4457829003601f168201915b505050505081565b600c60009054906101000a900473ffffffffffffffffffffffffffffffffffffffff1681565b606060018054610f9e906133de565b80601f0160208091040260200160405190810160405280929190818152602001828054610fca906133de565b80156110175780601f10610fec57610100808354040283529160200191611017565b820191906000526020600020905b815481529060010190602001808311610ffa57829003601f168201915b5050505050905090565b61103361102c61147f565b8383611a71565b5050565b61103f611540565b60005b82518110156110a057816011600085848151811061106357611062613a3f565b5b60200260200101518152602001908152602001600020908051906020019061108c9291906127e2565b50808061109890613a9d565b915050611042565b505050565b6110ad611540565b806011600084815260200190815260200160002090805190602001906110d49291906127e2565b505050565b601160205281600052604060002081815481106110f557600080fd5b90600052602060002001600091509150505481565b61111b61111561147f565b836115d2565b61115a576040517f08c379a0000000000000000000000000000000000000000000000000000000008152600401611151906135a5565b60405180910390fd5b61116684848484611bdd565b50505050565b600d60009054906101000a900473ffffffffffffffffffffffffffffffffffffffff1681565b6060600f80546111a1906133de565b80601f01602080910402602001604051908101604052809291908181526020018280546111cd906133de565b801561121a5780601f106111ef5761010080835404028352916020019161121a565b820191906000526020600020905b8154815290600101906020018083116111fd57829003601f168201915b50505050509050919050565b61122e611540565b806010908161123d9190613849565b507f3c8300f5e3cd88a366686ee66dc25f0bd916b46b64ffff5b887230430cdbf7388160405161126d91906129ab565b60405180910390a150565b6000600560008473ffffffffffffffffffffffffffffffffffffffff1673ffffffffffffffffffffffffffffffffffffffff16815260200190815260200160002060008373ffffffffffffffffffffffffffffffffffffffff1673ffffffffffffffffffffffffffffffffffffffff16815260200190815260200160002060009054906101000a900460ff16905092915050565b600b818154811061131c57600080fd5b9060005260206000209060029182820401919006601002915054906101000a90046fffffffffffffffffffffffffffffffff1681565b60007f80ac58cd000000000000000000000000000000000000000000000000000000007bffffffffffffffffffffffffffffffffffffffffffffffffffffffff1916827bffffffffffffffffffffffffffffffffffffffffffffffffffffffff1916148061141d57507f5b5e139f000000000000000000000000000000000000000000000000000000007bffffffffffffffffffffffffffffffffffffffffffffffffffffffff1916827bffffffffffffffffffffffffffffffffffffffffffffffffffffffff1916145b8061142d575061142c82611c39565b5b9050919050565b61143d81611ca3565b61147c576040517f08c379a000000000000000000000000000000000000000000000000000000000815260040161147390613b31565b60405180910390fd5b50565b600033905090565b816004600083815260200190815260200160002060006101000a81548173ffffffffffffffffffffffffffffffffffffffff021916908373ffffffffffffffffffffffffffffffffffffffff160217905550808273ffffffffffffffffffffffffffffffffffffffff166114fa83610c30565b73ffffffffffffffffffffffffffffffffffffffff167f8c5be1e5ebec7d5bd14f71427d1e84f3dd0314c0f7b2291e5b200ac8c7c3b92560405160405180910390a45050565b3373ffffffffffffffffffffffffffffffffffffffff16600c60009054906101000a900473ffffffffffffffffffffffffffffffffffffffff1673ffffffffffffffffffffffffffffffffffffffff16146115d0576040517f08c379a00000000000000000000000000000000000000000000000000000000081526004016115c790613c9b565b60405180910390fd5b565b6000806115de83610c30565b90508073ffffffffffffffffffffffffffffffffffffffff168473ffffffffffffffffffffffffffffffffffffffff161480611620575061161f8185611278565b5b8061165e57508373ffffffffffffffffffffffffffffffffffffffff16611646846106b9565b73ffffffffffffffffffffffffffffffffffffffff16145b91505092915050565b8273ffffffffffffffffffffffffffffffffffffffff1661168782610c30565b73ffffffffffffffffffffffffffffffffffffffff16146116dd576040517f08c379a00000000000000000000000000000000000000000000000000000000081526004016116d490613d2d565b60405180910390fd5b600073ffffffffffffffffffffffffffffffffffffffff168273ffffffffffffffffffffffffffffffffffffffff160361174c576040517f08c379a000000000000000000000000000000000000000000000000000000000815260040161174390613dbf565b60405180910390fd5b6117598383836001611ce4565b8273ffffffffffffffffffffffffffffffffffffffff1661177982610c30565b73ffffffffffffffffffffffffffffffffffffffff16146117cf576040517f08c379a00000000000000000000000000000000000000000000000000000000081526004016117c690613d2d565b60405180910390fd5b6004600082815260200190815260200160002060006101000a81549073ffffffffffffffffffffffffffffffffffffffff02191690556001600360008573ffffffffffffffffffffffffffffffffffffffff1673ffffffffffffffffffffffffffffffffffffffff168152602001908152602001600020600082825403925050819055506001600360008473ffffffffffffffffffffffffffffffffffffffff1673ffffffffffffffffffffffffffffffffffffffff16815260200190815260200160002060008282540192505081905550816002600083815260200190815260200160002060006101000a81548173ffffffffffffffffffffffffffffffffffffffff021916908373ffffffffffffffffffffffffffffffffffffffff160217905550808273ffffffffffffffffffffffffffffffffffffffff168473ffffffffffffffffffffffffffffffffffffffff167fddf252ad1be2c89b69c2b068fc378daa952ba7f163c4a11628f55a4df523b3ef60405160405180910390a461195b8383836001611d5c565b505050565b816000908161196f9190613849565b50806001908161197f9190613849565b505050565b3373ffffffffffffffffffffffffffffffffffffffff16600d60009054906101000a900473ffffffffffffffffffffffffffffffffffffffff1673ffffffffffffffffffffffffffffffffffffffff1614611a14576040517f08c379a0000000000000000000000000000000000000000000000000000000008152600401611a0b90613e2b565b60405180910390fd5b565b60006002600083815260200190815260200160002060009054906101000a900473ffffffffffffffffffffffffffffffffffffffff169050919050565b611a6d828260405180602001604052806000815250611d62565b5050565b8173ffffffffffffffffffffffffffffffffffffffff168373ffffffffffffffffffffffffffffffffffffffff1603611adf576040517f08c379a0000000000000000000000000000000000000000000000000000000008152600401611ad690613e97565b60405180910390fd5b80600560008573ffffffffffffffffffffffffffffffffffffffff1673ffffffffffffffffffffffffffffffffffffffff16815260200190815260200160002060008473ffffffffffffffffffffffffffffffffffffffff1673ffffffffffffffffffffffffffffffffffffffff16815260200190815260200160002060006101000a81548160ff0219169083151502179055508173ffffffffffffffffffffffffffffffffffffffff168373ffffffffffffffffffffffffffffffffffffffff167f17307eab39ab6107e8899845ad3d59bd9653f200f220920489ca2b5937696c3183604051611bd09190612900565b60405180910390a3505050565b611be8848484611667565b611bf484848484611dbd565b611c33576040517f08c379a0000000000000000000000000000000000000000000000000000000008152600401611c2a90613f29565b60405180910390fd5b50505050565b60007f01ffc9a7000000000000000000000000000000000000000000000000000000007bffffffffffffffffffffffffffffffffffffffffffffffffffffffff1916827bffffffffffffffffffffffffffffffffffffffffffffffffffffffff1916149050919050565b60008073ffffffffffffffffffffffffffffffffffffffff16611cc583611a16565b73ffffffffffffffffffffffffffffffffffffffff1614159050919050565b60006012600084815260200190815260200160002060009054906101000a900460ff1660ff1614611d4a576040517f08c379a0000000000000000000000000000000000000000000000000000000008152600401611d4190613f95565b60405180910390fd5b611d5684848484611f44565b50505050565b50505050565b611d6c83836120a2565b611d796000848484611dbd565b611db8576040517f08c379a0000000000000000000000000000000000000000000000000000000008152600401611daf90613f29565b60405180910390fd5b505050565b6000611dde8473ffffffffffffffffffffffffffffffffffffffff166122bf565b15611f37578373ffffffffffffffffffffffffffffffffffffffff1663150b7a02611e0761147f565b8786866040518563ffffffff1660e01b8152600401611e29949392919061400a565b6020604051808303816000875af1925050508015611e6557506040513d601f19601f82011682018060405250810190611e62919061406b565b60015b611ee7573d8060008114611e95576040519150601f19603f3d011682016040523d82523d6000602084013e611e9a565b606091505b506000815103611edf576040517f08c379a0000000000000000000000000000000000000000000000000000000008152600401611ed690613f29565b60405180910390fd5b805181602001fd5b63150b7a0260e01b7bffffffffffffffffffffffffffffffffffffffffffffffffffffffff1916817bffffffffffffffffffffffffffffffffffffffffffffffffffffffff191614915050611f3c565b600190505b949350505050565b611f50848484846122e2565b6001811115611f94576040517f08c379a0000000000000000000000000000000000000000000000000000000008152600401611f8b9061410a565b60405180910390fd5b6000829050600073ffffffffffffffffffffffffffffffffffffffff168573ffffffffffffffffffffffffffffffffffffffff1603611fdb57611fd681612408565b61201a565b8373ffffffffffffffffffffffffffffffffffffffff168573ffffffffffffffffffffffffffffffffffffffff1614612019576120188582612451565b5b5b600073ffffffffffffffffffffffffffffffffffffffff168473ffffffffffffffffffffffffffffffffffffffff160361205c57612057816125be565b61209b565b8473ffffffffffffffffffffffffffffffffffffffff168473ffffffffffffffffffffffffffffffffffffffff161461209a57612099848261268f565b5b5b5050505050565b600073ffffffffffffffffffffffffffffffffffffffff168273ffffffffffffffffffffffffffffffffffffffff1603612111576040517f08c379a000000000000000000000000000000000000000000000000000000000815260040161210890614176565b60405180910390fd5b61211a81611ca3565b1561215a576040517f08c379a0000000000000000000000000000000000000000000000000000000008152600401612151906141e2565b60405180910390fd5b612168600083836001611ce4565b61217181611ca3565b156121b1576040517f08c379a00000000000000000000000000000000000000000000000000000000081526004016121a8906141e2565b60405180910390fd5b6001600360008473ffffffffffffffffffffffffffffffffffffffff1673ffffffffffffffffffffffffffffffffffffffff16815260200190815260200160002060008282540192505081905550816002600083815260200190815260200160002060006101000a81548173ffffffffffffffffffffffffffffffffffffffff021916908373ffffffffffffffffffffffffffffffffffffffff160217905550808273ffffffffffffffffffffffffffffffffffffffff16600073ffffffffffffffffffffffffffffffffffffffff167fddf252ad1be2c89b69c2b068fc378daa952ba7f163c4a11628f55a4df523b3ef60405160405180910390a46122bb600083836001611d5c565b5050565b6000808273ffffffffffffffffffffffffffffffffffffffff163b119050919050565b600181111561240257600073ffffffffffffffffffffffffffffffffffffffff168473ffffffffffffffffffffffffffffffffffffffff16146123765780600360008673ffffffffffffffffffffffffffffffffffffffff1673ffffffffffffffffffffffffffffffffffffffff168152602001908152602001600020600082825461236e9190614202565b925050819055505b600073ffffffffffffffffffffffffffffffffffffffff168373ffffffffffffffffffffffffffffffffffffffff16146124015780600360008573ffffffffffffffffffffffffffffffffffffffff1673ffffffffffffffffffffffffffffffffffffffff16815260200190815260200160002060008282546123f99190614236565b925050819055505b5b50505050565b6008805490506009600083815260200190815260200160002081905550600881908060018154018082558091505060019003906000526020600020016000909190919091505550565b6000600161245e84610e24565b6124689190614202565b905060006007600084815260200190815260200160002054905081811461254d576000600660008673ffffffffffffffffffffffffffffffffffffffff1673ffffffffffffffffffffffffffffffffffffffff168152602001908152602001600020600084815260200190815260200160002054905080600660008773ffffffffffffffffffffffffffffffffffffffff1673ffffffffffffffffffffffffffffffffffffffff168152602001908152602001600020600084815260200190815260200160002081905550816007600083815260200190815260200160002081905550505b6007600084815260200190815260200160002060009055600660008573ffffffffffffffffffffffffffffffffffffffff1673ffffffffffffffffffffffffffffffffffffffff16815260200190815260200160002060008381526020019081526020016000206000905550505050565b600060016008805490506125d29190614202565b905060006009600084815260200190815260200160002054905060006008838154811061260257612601613a3f565b5b90600052602060002001549050806008838154811061262457612623613a3f565b5b9060005260206000200181905550816009600083815260200190815260200160002081905550600960008581526020019081526020016000206000905560088054806126735761267261426a565b5b6001900381819060005260206000200160009055905550505050565b600061269a83610e24565b905081600660008573ffffffffffffffffffffffffffffffffffffffff1673ffffffffffffffffffffffffffffffffffffffff168152602001908152602001600020600083815260200190815260200160002081905550806007600084815260200190815260200160002081905550505050565b828054828255906000526020600020906001016002900481019282156127d15791602002820160005b8382111561279357835183826101000a8154816fffffffffffffffffffffffffffffffff02191690836fffffffffffffffffffffffffffffffff1602179055509260200192601001602081600f01049283019260010302612737565b80156127cf5782816101000a8154906fffffffffffffffffffffffffffffffff0219169055601001602081600f01049283019260010302612793565b505b5090506127de919061282f565b5090565b82805482825590600052602060002090810192821561281e579160200282015b8281111561281d578251825591602001919060010190612802565b5b50905061282b919061282f565b5090565b5b80821115612848576000816000905550600101612830565b5090565b6000604051905090565b600080fd5b600080fd5b60007fffffffff0000000000000000000000000000000000000000000000000000000082169050919050565b61289581612860565b81146128a057600080fd5b50565b6000813590506128b28161288c565b92915050565b6000602082840312156128ce576128cd612856565b5b60006128dc848285016128a3565b91505092915050565b60008115159050919050565b6128fa816128e5565b82525050565b600060208201905061291560008301846128f1565b92915050565b600081519050919050565b600082825260208201905092915050565b60005b8381101561295557808201518184015260208101905061293a565b60008484015250505050565b6000601f19601f8301169050919050565b600061297d8261291b565b6129878185612926565b9350612997818560208601612937565b6129a081612961565b840191505092915050565b600060208201905081810360008301526129c58184612972565b905092915050565b6000819050919050565b6129e0816129cd565b81146129eb57600080fd5b50565b6000813590506129fd816129d7565b92915050565b600060208284031215612a1957612a18612856565b5b6000612a27848285016129ee565b91505092915050565b600073ffffffffffffffffffffffffffffffffffffffff82169050919050565b6000612a5b82612a30565b9050919050565b612a6b81612a50565b82525050565b6000602082019050612a866000830184612a62565b92915050565b612a9581612a50565b8114612aa057600080fd5b50565b600081359050612ab281612a8c565b92915050565b60008060408385031215612acf57612ace612856565b5b6000612add85828601612aa3565b9250506020612aee858286016129ee565b9150509250929050565b600060208284031215612b0e57612b0d612856565b5b6000612b1c84828501612aa3565b91505092915050565b612b2e816129cd565b82525050565b6000602082019050612b496000830184612b25565b92915050565b600080600060608486031215612b6857612b67612856565b5b6000612b7686828701612aa3565b9350506020612b8786828701612aa3565b9250506040612b98868287016129ee565b9150509250925092565b600080fd5b600080fd5b7f4e487b7100000000000000000000000000000000000000000000000000000000600052604160045260246000fd5b612be482612961565b810181811067ffffffffffffffff82111715612c0357612c02612bac565b5b80604052505050565b6000612c1661284c565b9050612c228282612bdb565b919050565b600067ffffffffffffffff821115612c4257612c41612bac565b5b612c4b82612961565b9050602081019050919050565b82818337600083830152505050565b6000612c7a612c7584612c27565b612c0c565b905082815260208101848484011115612c9657612c95612ba7565b5b612ca1848285612c58565b509392505050565b600082601f830112612cbe57612cbd612ba2565b5b8135612cce848260208601612c67565b91505092915050565b600067ffffffffffffffff821115612cf257612cf1612bac565b5b602082029050602081019050919050565b600080fd5b60006fffffffffffffffffffffffffffffffff82169050919050565b612d2d81612d08565b8114612d3857600080fd5b50565b600081359050612d4a81612d24565b92915050565b6000612d63612d5e84612cd7565b612c0c565b90508083825260208201905060208402830185811115612d8657612d85612d03565b5b835b81811015612daf5780612d9b8882612d3b565b845260208401935050602081019050612d88565b5050509392505050565b600082601f830112612dce57612dcd612ba2565b5b8135612dde848260208601612d50565b91505092915050565b60008060008060008060c08789031215612e0457612e03612856565b5b6000612e1289828a01612aa3565b965050602087013567ffffffffffffffff811115612e3357612e3261285b565b5b612e3f89828a01612ca9565b955050604087013567ffffffffffffffff811115612e6057612e5f61285b565b5b612e6c89828a01612ca9565b945050606087013567ffffffffffffffff811115612e8d57612e8c61285b565b5b612e9989828a01612ca9565b935050608087013567ffffffffffffffff811115612eba57612eb961285b565b5b612ec689828a01612ca9565b92505060a087013567ffffffffffffffff811115612ee757612ee661285b565b5b612ef389828a01612db9565b9150509295509295509295565b600067ffffffffffffffff821115612f1b57612f1a612bac565b5b602082029050602081019050919050565b6000612f3f612f3a84612f00565b612c0c565b90508083825260208201905060208402830185811115612f6257612f61612d03565b5b835b81811015612f8b5780612f7788826129ee565b845260208401935050602081019050612f64565b5050509392505050565b600082601f830112612faa57612fa9612ba2565b5b8135612fba848260208601612f2c565b91505092915050565b600060ff82169050919050565b612fd981612fc3565b8114612fe457600080fd5b50565b600081359050612ff681612fd0565b92915050565b6000806040838503121561301357613012612856565b5b600083013567ffffffffffffffff8111156130315761303061285b565b5b61303d85828601612f95565b925050602061304e85828601612fe7565b9150509250929050565b613061816128e5565b811461306c57600080fd5b50565b60008135905061307e81613058565b92915050565b6000806040838503121561309b5761309a612856565b5b60006130a985828601612aa3565b92505060206130ba8582860161306f565b9150509250929050565b600080604083850312156130db576130da612856565b5b600083013567ffffffffffffffff8111156130f9576130f861285b565b5b61310585828601612f95565b925050602083013567ffffffffffffffff8111156131265761312561285b565b5b61313285828601612f95565b9150509250929050565b6000806040838503121561315357613152612856565b5b6000613161858286016129ee565b925050602083013567ffffffffffffffff8111156131825761318161285b565b5b61318e85828601612f95565b9150509250929050565b600080604083850312156131af576131ae612856565b5b60006131bd858286016129ee565b92505060206131ce858286016129ee565b9150509250929050565b600067ffffffffffffffff8211156131f3576131f2612bac565b5b6131fc82612961565b9050602081019050919050565b600061321c613217846131d8565b612c0c565b90508281526020810184848401111561323857613237612ba7565b5b613243848285612c58565b509392505050565b600082601f8301126132605761325f612ba2565b5b8135613270848260208601613209565b91505092915050565b6000806000806080858703121561329357613292612856565b5b60006132a187828801612aa3565b94505060206132b287828801612aa3565b93505060406132c3878288016129ee565b925050606085013567ffffffffffffffff8111156132e4576132e361285b565b5b6132f08782880161324b565b91505092959194509250565b60006020828403121561331257613311612856565b5b600082013567ffffffffffffffff8111156133305761332f61285b565b5b61333c84828501612ca9565b91505092915050565b6000806040838503121561335c5761335b612856565b5b600061336a85828601612aa3565b925050602061337b85828601612aa3565b9150509250929050565b61338e81612d08565b82525050565b60006020820190506133a96000830184613385565b92915050565b7f4e487b7100000000000000000000000000000000000000000000000000000000600052602260045260246000fd5b600060028204905060018216806133f657607f821691505b602082108103613409576134086133af565b5b50919050565b7f4552433732313a20617070726f76616c20746f2063757272656e74206f776e6560008201527f7200000000000000000000000000000000000000000000000000000000000000602082015250565b600061346b602183612926565b91506134768261340f565b604082019050919050565b6000602082019050818103600083015261349a8161345e565b9050919050565b7f4552433732313a20617070726f76652063616c6c6572206973206e6f7420746f60008201527f6b656e206f776e6572206f7220617070726f76656420666f7220616c6c000000602082015250565b60006134fd603d83612926565b9150613508826134a1565b604082019050919050565b6000602082019050818103600083015261352c816134f0565b9050919050565b7f4552433732313a2063616c6c6572206973206e6f7420746f6b656e206f776e6560008201527f72206f7220617070726f76656400000000000000000000000000000000000000602082015250565b600061358f602d83612926565b915061359a82613533565b604082019050919050565b600060208201905081810360008301526135be81613582565b9050919050565b7f4261736520436f6e747261637400000000000000000000000000000000000000600082015250565b60006135fb600d83612926565b9150613606826135c5565b602082019050919050565b6000602082019050818103600083015261362a816135ee565b9050919050565b7f416c726561647920696e697469616c697a656400000000000000000000000000600082015250565b6000613667601383612926565b915061367282613631565b602082019050919050565b600060208201905081810360008301526136968161365a565b9050919050565b60008190508160005260206000209050919050565b60006020601f8301049050919050565b600082821b905092915050565b6000600883026136ff7fffffffffffffffffffffffffffffffffffffffffffffffffffffffffffffffff826136c2565b61370986836136c2565b95508019841693508086168417925050509392505050565b6000819050919050565b600061374661374161373c846129cd565b613721565b6129cd565b9050919050565b6000819050919050565b6137608361372b565b61377461376c8261374d565b8484546136cf565b825550505050565b600090565b61378961377c565b613794818484613757565b505050565b5b818110156137b8576137ad600082613781565b60018101905061379a565b5050565b601f8211156137fd576137ce8161369d565b6137d7846136b2565b810160208510156137e6578190505b6137fa6137f2856136b2565b830182613799565b50505b505050565b600082821c905092915050565b600061382060001984600802613802565b1980831691505092915050565b6000613839838361380f565b9150826002028217905092915050565b6138528261291b565b67ffffffffffffffff81111561386b5761386a612bac565b5b61387582546133de565b6138808282856137bc565b600060209050601f8311600181146138b357600084156138a1578287015190505b6138ab858261382d565b865550613913565b601f1984166138c18661369d565b60005b828110156138e9578489015182556001820191506020850194506020810190506138c4565b868310156139065784890151613902601f89168261380f565b8355505b6001600288020188555050505b505050505050565b7f455243373231456e756d657261626c653a206f776e657220696e646578206f7560008201527f74206f6620626f756e6473000000000000000000000000000000000000000000602082015250565b6000613977602b83612926565b91506139828261391b565b604082019050919050565b600060208201905081810360008301526139a68161396a565b9050919050565b7f455243373231456e756d657261626c653a20676c6f62616c20696e646578206f60008201527f7574206f6620626f756e64730000000000000000000000000000000000000000602082015250565b6000613a09602c83612926565b9150613a14826139ad565b604082019050919050565b60006020820190508181036000830152613a38816139fc565b9050919050565b7f4e487b7100000000000000000000000000000000000000000000000000000000600052603260045260246000fd5b7f4e487b7100000000000000000000000000000000000000000000000000000000600052601160045260246000fd5b6000613aa8826129cd565b91507fffffffffffffffffffffffffffffffffffffffffffffffffffffffffffffffff8203613ada57613ad9613a6e565b5b600182019050919050565b7f4552433732313a20696e76616c696420746f6b656e2049440000000000000000600082015250565b6000613b1b601883612926565b9150613b2682613ae5565b602082019050919050565b60006020820190508181036000830152613b4a81613b0e565b9050919050565b7f4973206e6f7420696e697469616c697a65640000000000000000000000000000600082015250565b6000613b87601283612926565b9150613b9282613b51565b602082019050919050565b60006020820190508181036000830152613bb681613b7a565b9050919050565b7f4552433732313a2061646472657373207a65726f206973206e6f74206120766160008201527f6c6964206f776e65720000000000000000000000000000000000000000000000602082015250565b6000613c19602983612926565b9150613c2482613bbd565b604082019050919050565b60006020820190508181036000830152613c4881613c0c565b9050919050565b7f4f6e6c794f776e65720000000000000000000000000000000000000000000000600082015250565b6000613c85600983612926565b9150613c9082613c4f565b602082019050919050565b60006020820190508181036000830152613cb481613c78565b9050919050565b7f4552433732313a207472616e736665722066726f6d20696e636f72726563742060008201527f6f776e6572000000000000000000000000000000000000000000000000000000602082015250565b6000613d17602583612926565b9150613d2282613cbb565b604082019050919050565b60006020820190508181036000830152613d4681613d0a565b9050919050565b7f4552433732313a207472616e7366657220746f20746865207a65726f2061646460008201527f7265737300000000000000000000000000000000000000000000000000000000602082015250565b6000613da9602483612926565b9150613db482613d4d565b604082019050919050565b60006020820190508181036000830152613dd881613d9c565b9050919050565b7f4f6e6c79466163746f7279000000000000000000000000000000000000000000600082015250565b6000613e15600b83612926565b9150613e2082613ddf565b602082019050919050565b60006020820190508181036000830152613e4481613e08565b9050919050565b7f4552433732313a20617070726f766520746f2063616c6c657200000000000000600082015250565b6000613e81601983612926565b9150613e8c82613e4b565b602082019050919050565b60006020820190508181036000830152613eb081613e74565b9050919050565b7f4552433732313a207472616e7366657220746f206e6f6e20455243373231526560008201527f63656976657220696d706c656d656e7465720000000000000000000000000000602082015250565b6000613f13603283612926565b9150613f1e82613eb7565b604082019050919050565b60006020820190508181036000830152613f4281613f06565b9050919050565b7f4e4654206973206c6f636b656400000000000000000000000000000000000000600082015250565b6000613f7f600d83612926565b9150613f8a82613f49565b602082019050919050565b60006020820190508181036000830152613fae81613f72565b9050919050565b600081519050919050565b600082825260208201905092915050565b6000613fdc82613fb5565b613fe68185613fc0565b9350613ff6818560208601612937565b613fff81612961565b840191505092915050565b600060808201905061401f6000830187612a62565b61402c6020830186612a62565b6140396040830185612b25565b818103606083015261404b8184613fd1565b905095945050505050565b6000815190506140658161288c565b92915050565b60006020828403121561408157614080612856565b5b600061408f84828501614056565b91505092915050565b7f455243373231456e756d657261626c653a20636f6e736563757469766520747260008201527f616e7366657273206e6f7420737570706f727465640000000000000000000000602082015250565b60006140f4603583612926565b91506140ff82614098565b604082019050919050565b60006020820190508181036000830152614123816140e7565b9050919050565b7f4552433732313a206d696e7420746f20746865207a65726f2061646472657373600082015250565b6000614160602083612926565b915061416b8261412a565b602082019050919050565b6000602082019050818103600083015261418f81614153565b9050919050565b7f4552433732313a20746f6b656e20616c7265616479206d696e74656400000000600082015250565b60006141cc601c83612926565b91506141d782614196565b602082019050919050565b600060208201905081810360008301526141fb816141bf565b9050919050565b600061420d826129cd565b9150614218836129cd565b92508282039050818111156142305761422f613a6e565b5b92915050565b6000614241826129cd565b915061424c836129cd565b925082820190508082111561426457614263613a6e565b5b92915050565b7f4e487b7100000000000000000000000000000000000000000000000000000000600052603160045260246000fdfea2646970667358221220f102d4594636ced14ad1ba2ef4e5ddb0df4af53438f81093fe924bc4680e615d64736f6c63430008110033",
  "linkReferences": {},
  "deployedLinkReferences": {}
}