{
  "_format": "hh-sol-artifact-1",
  "contractName": "YoursFactory",
  "sourceName": "contracts/YoursFactory.sol",
  "abi": [
    {
      "inputs": [
        {
          "internalType": "address",
          "name": "_base",
          "type": "address"
        }
      ],
      "stateMutability": "nonpayable",
      "type": "constructor"
    },
    {
      "anonymous": false,
      "inputs": [
        {
          "indexed": false,
          "internalType": "address",
          "name": "_newClone",
          "type": "address"
        },
        {
          "indexed": false,
          "internalType": "address",
          "name": "_owner",
          "type": "address"
        }
      ],
      "name": "DeployNFT",
      "type": "event"
    },
    {
      "inputs": [],
      "name": "baseContract",
      "outputs": [
        {
          "internalType": "address",
          "name": "",
          "type": "address"
        }
      ],
      "stateMutability": "view",
      "type": "function"
    },
    {
      "inputs": [
        {
          "internalType": "string",
          "name": "_name",
          "type": "string"
        },
        {
          "internalType": "string",
          "name": "_symbol",
          "type": "string"
        },
        {
          "internalType": "string",
          "name": "_uri",
          "type": "string"
        },
        {
          "internalType": "string",
          "name": "_benefitURI",
          "type": "string"
        },
        {
          "internalType": "uint128[]",
          "name": "_defaultBenefit",
          "type": "uint128[]"
        }
      ],
      "name": "deployNFT",
      "outputs": [],
      "stateMutability": "nonpayable",
      "type": "function"
    },
    {
      "inputs": [
        {
          "internalType": "address",
          "name": "_to",
          "type": "address"
        },
        {
          "internalType": "string",
          "name": "_uri",
          "type": "string"
        },
        {
          "internalType": "address[]",
          "name": "_nftAddresses",
          "type": "address[]"
        },
        {
          "internalType": "uint256[][]",
          "name": "_nftIds",
          "type": "uint256[][]"
        }
      ],
      "name": "integrateNFTs",
      "outputs": [],
      "stateMutability": "nonpayable",
      "type": "function"
    },
    {
      "inputs": [],
      "name": "interNFTFactory",
      "outputs": [
        {
          "internalType": "address",
          "name": "",
          "type": "address"
        }
      ],
      "stateMutability": "view",
      "type": "function"
    },
    {
      "inputs": [],
      "name": "isPaused",
      "outputs": [
        {
          "internalType": "uint256",
          "name": "",
          "type": "uint256"
        }
      ],
      "stateMutability": "view",
      "type": "function"
    },
    {
      "inputs": [
        {
          "internalType": "uint256",
          "name": "",
          "type": "uint256"
        }
      ],
      "name": "nfts",
      "outputs": [
        {
          "internalType": "address",
          "name": "creator",
          "type": "address"
        },
        {
          "internalType": "address",
          "name": "nftAddress",
          "type": "address"
        }
      ],
      "stateMutability": "view",
      "type": "function"
    },
    {
      "inputs": [],
      "name": "owner",
      "outputs": [
        {
          "internalType": "address",
          "name": "",
          "type": "address"
        }
      ],
      "stateMutability": "view",
      "type": "function"
    },
    {
      "inputs": [
        {
          "internalType": "address",
          "name": "_newAdd",
          "type": "address"
        }
      ],
      "name": "setBase",
      "outputs": [],
      "stateMutability": "nonpayable",
      "type": "function"
    },
    {
      "inputs": [
        {
          "internalType": "address",
          "name": "_newAdd",
          "type": "address"
        }
      ],
      "name": "setInterNFT",
      "outputs": [],
      "stateMutability": "nonpayable",
      "type": "function"
    },
    {
      "inputs": [
        {
          "internalType": "address",
          "name": "_newAdd",
          "type": "address"
        }
      ],
      "name": "setOwner",
      "outputs": [],
      "stateMutability": "nonpayable",
      "type": "function"
    },
    {
      "inputs": [],
      "name": "setPaused",
      "outputs": [],
      "stateMutability": "nonpayable",
      "type": "function"
    }
  ],
  "bytecode": "0x60806040523480156200001157600080fd5b50604051620019c1380380620019c1833981810160405281019062000037919062000131565b336000806101000a81548173ffffffffffffffffffffffffffffffffffffffff021916908373ffffffffffffffffffffffffffffffffffffffff16021790555080600160006101000a81548173ffffffffffffffffffffffffffffffffffffffff021916908373ffffffffffffffffffffffffffffffffffffffff16021790555060006003819055505062000163565b600080fd5b600073ffffffffffffffffffffffffffffffffffffffff82169050919050565b6000620000f982620000cc565b9050919050565b6200010b81620000ec565b81146200011757600080fd5b50565b6000815190506200012b8162000100565b92915050565b6000602082840312156200014a5762000149620000c7565b5b60006200015a848285016200011a565b91505092915050565b61184e80620001736000396000f3fe608060405234801561001057600080fd5b50600436106100a95760003560e01c80638da5cb5b116100715780638da5cb5b1461013f57806398643e501461015d578063b187bd261461017b578063be17fe6214610199578063f3a4282b146101b5578063f928bd08146101d1576100a9565b806303aac2bf146100ae57806313af4035146100ca578063265aa621146100e657806337a66d85146101175780635b32619c14610121575b600080fd5b6100c860048036038101906100c39190610b50565b6101ed565b005b6100e460048036038101906100df9190610cb5565b610420565b005b61010060048036038101906100fb9190610d18565b61046b565b60405161010e929190610d54565b60405180910390f35b61011f6104cf565b005b610129610517565b6040516101369190610d7d565b60405180910390f35b61014761053d565b6040516101549190610d7d565b60405180910390f35b610165610561565b6040516101729190610d7d565b60405180910390f35b610183610587565b6040516101909190610da7565b60405180910390f35b6101b360048036038101906101ae9190610cb5565b6105a1565b005b6101cf60048036038101906101ca9190610cb5565b6105ed565b005b6101eb60048036038101906101e69190611029565b610639565b005b6000600260149054906101000a900460ff1660ff1614610242576040517f08c379a000000000000000000000000000000000000000000000000000000000815260040161023990611141565b60405180910390fd5b600061026f600160009054906101000a900473ffffffffffffffffffffffffffffffffffffffff1661079c565b905060405180604001604052803373ffffffffffffffffffffffffffffffffffffffff1681526020018273ffffffffffffffffffffffffffffffffffffffff16815250600460006003600081546102c590611190565b919050819055815260200190815260200160002060008201518160000160006101000a81548173ffffffffffffffffffffffffffffffffffffffff021916908373ffffffffffffffffffffffffffffffffffffffff16021790555060208201518160010160006101000a81548173ffffffffffffffffffffffffffffffffffffffff021916908373ffffffffffffffffffffffffffffffffffffffff1602179055509050508073ffffffffffffffffffffffffffffffffffffffff16632e5a55c93388888888886040518763ffffffff1660e01b81526004016103ad96959493929190611304565b600060405180830381600087803b1580156103c757600080fd5b505af11580156103db573d6000803e3d6000fd5b505050507f8abf7cfa8fefb4d85e1fee7597b1e9a2c02eb2d678393fc13f20fd3175cb62928133604051610410929190610d54565b60405180910390a1505050505050565b610428610856565b806000806101000a81548173ffffffffffffffffffffffffffffffffffffffff021916908373ffffffffffffffffffffffffffffffffffffffff16021790555050565b60046020528060005260406000206000915090508060000160009054906101000a900473ffffffffffffffffffffffffffffffffffffffff16908060010160009054906101000a900473ffffffffffffffffffffffffffffffffffffffff16905082565b6104d7610856565b6000600260149054906101000a900460ff1660ff16146104f85760006104fb565b60015b600260146101000a81548160ff021916908360ff160217905550565b600160009054906101000a900473ffffffffffffffffffffffffffffffffffffffff1681565b60008054906101000a900473ffffffffffffffffffffffffffffffffffffffff1681565b600260009054906101000a900473ffffffffffffffffffffffffffffffffffffffff1681565b6000600260149054906101000a900460ff1660ff16905090565b6105a9610856565b80600160006101000a81548173ffffffffffffffffffffffffffffffffffffffff021916908373ffffffffffffffffffffffffffffffffffffffff16021790555050565b6105f5610856565b80600260006101000a81548173ffffffffffffffffffffffffffffffffffffffff021916908373ffffffffffffffffffffffffffffffffffffffff16021790555050565b610641610856565b60005b8251811015610702578281815181106106605761065f611388565b5b602002602001015173ffffffffffffffffffffffffffffffffffffffff16634ffb558383838151811061069657610695611388565b5b602002602001015160016040518363ffffffff1660e01b81526004016106bd9291906114c7565b600060405180830381600087803b1580156106d757600080fd5b505af11580156106eb573d6000803e3d6000fd5b5050505080806106fa90611190565b915050610644565b50600260009054906101000a900473ffffffffffffffffffffffffffffffffffffffff1673ffffffffffffffffffffffffffffffffffffffff166396d9d0b3858585856040518563ffffffff1660e01b815260040161076494939291906116e6565b600060405180830381600087803b15801561077e57600080fd5b505af1158015610792573d6000803e3d6000fd5b5050505050505050565b6000763d602d80600a3d3981f3363d3d373d3d3d363d730000008260601b60e81c176000526e5af43d82803e903d91602b57fd5bf38260781b17602052603760096000f09050600073ffffffffffffffffffffffffffffffffffffffff168173ffffffffffffffffffffffffffffffffffffffff1603610851576040517f08c379a00000000000000000000000000000000000000000000000000000000081526004016108489061178c565b60405180910390fd5b919050565b3373ffffffffffffffffffffffffffffffffffffffff1660008054906101000a900473ffffffffffffffffffffffffffffffffffffffff1673ffffffffffffffffffffffffffffffffffffffff16146108e4576040517f08c379a00000000000000000000000000000000000000000000000000000000081526004016108db906117f8565b60405180910390fd5b565b6000604051905090565b600080fd5b600080fd5b600080fd5b600080fd5b6000601f19601f8301169050919050565b7f4e487b7100000000000000000000000000000000000000000000000000000000600052604160045260246000fd5b61094d82610904565b810181811067ffffffffffffffff8211171561096c5761096b610915565b5b80604052505050565b600061097f6108e6565b905061098b8282610944565b919050565b600067ffffffffffffffff8211156109ab576109aa610915565b5b6109b482610904565b9050602081019050919050565b82818337600083830152505050565b60006109e36109de84610990565b610975565b9050828152602081018484840111156109ff576109fe6108ff565b5b610a0a8482856109c1565b509392505050565b600082601f830112610a2757610a266108fa565b5b8135610a378482602086016109d0565b91505092915050565b600067ffffffffffffffff821115610a5b57610a5a610915565b5b602082029050602081019050919050565b600080fd5b60006fffffffffffffffffffffffffffffffff82169050919050565b610a9681610a71565b8114610aa157600080fd5b50565b600081359050610ab381610a8d565b92915050565b6000610acc610ac784610a40565b610975565b90508083825260208201905060208402830185811115610aef57610aee610a6c565b5b835b81811015610b185780610b048882610aa4565b845260208401935050602081019050610af1565b5050509392505050565b600082601f830112610b3757610b366108fa565b5b8135610b47848260208601610ab9565b91505092915050565b600080600080600060a08688031215610b6c57610b6b6108f0565b5b600086013567ffffffffffffffff811115610b8a57610b896108f5565b5b610b9688828901610a12565b955050602086013567ffffffffffffffff811115610bb757610bb66108f5565b5b610bc388828901610a12565b945050604086013567ffffffffffffffff811115610be457610be36108f5565b5b610bf088828901610a12565b935050606086013567ffffffffffffffff811115610c1157610c106108f5565b5b610c1d88828901610a12565b925050608086013567ffffffffffffffff811115610c3e57610c3d6108f5565b5b610c4a88828901610b22565b9150509295509295909350565b600073ffffffffffffffffffffffffffffffffffffffff82169050919050565b6000610c8282610c57565b9050919050565b610c9281610c77565b8114610c9d57600080fd5b50565b600081359050610caf81610c89565b92915050565b600060208284031215610ccb57610cca6108f0565b5b6000610cd984828501610ca0565b91505092915050565b6000819050919050565b610cf581610ce2565b8114610d0057600080fd5b50565b600081359050610d1281610cec565b92915050565b600060208284031215610d2e57610d2d6108f0565b5b6000610d3c84828501610d03565b91505092915050565b610d4e81610c77565b82525050565b6000604082019050610d696000830185610d45565b610d766020830184610d45565b9392505050565b6000602082019050610d926000830184610d45565b92915050565b610da181610ce2565b82525050565b6000602082019050610dbc6000830184610d98565b92915050565b600067ffffffffffffffff821115610ddd57610ddc610915565b5b602082029050602081019050919050565b6000610e01610dfc84610dc2565b610975565b90508083825260208201905060208402830185811115610e2457610e23610a6c565b5b835b81811015610e4d5780610e398882610ca0565b845260208401935050602081019050610e26565b5050509392505050565b600082601f830112610e6c57610e6b6108fa565b5b8135610e7c848260208601610dee565b91505092915050565b600067ffffffffffffffff821115610ea057610e9f610915565b5b602082029050602081019050919050565b600067ffffffffffffffff821115610ecc57610ecb610915565b5b602082029050602081019050919050565b6000610ef0610eeb84610eb1565b610975565b90508083825260208201905060208402830185811115610f1357610f12610a6c565b5b835b81811015610f3c5780610f288882610d03565b845260208401935050602081019050610f15565b5050509392505050565b600082601f830112610f5b57610f5a6108fa565b5b8135610f6b848260208601610edd565b91505092915050565b6000610f87610f8284610e85565b610975565b90508083825260208201905060208402830185811115610faa57610fa9610a6c565b5b835b81811015610ff157803567ffffffffffffffff811115610fcf57610fce6108fa565b5b808601610fdc8982610f46565b85526020850194505050602081019050610fac565b5050509392505050565b600082601f8301126110105761100f6108fa565b5b8135611020848260208601610f74565b91505092915050565b60008060008060808587031215611043576110426108f0565b5b600061105187828801610ca0565b945050602085013567ffffffffffffffff811115611072576110716108f5565b5b61107e87828801610a12565b935050604085013567ffffffffffffffff81111561109f5761109e6108f5565b5b6110ab87828801610e57565b925050606085013567ffffffffffffffff8111156110cc576110cb6108f5565b5b6110d887828801610ffb565b91505092959194509250565b600082825260208201905092915050565b7f436f6e7472616374206973207061757365640000000000000000000000000000600082015250565b600061112b6012836110e4565b9150611136826110f5565b602082019050919050565b6000602082019050818103600083015261115a8161111e565b9050919050565b7f4e487b7100000000000000000000000000000000000000000000000000000000600052601160045260246000fd5b600061119b82610ce2565b91507fffffffffffffffffffffffffffffffffffffffffffffffffffffffffffffffff82036111cd576111cc611161565b5b600182019050919050565b600081519050919050565b60005b838110156112015780820151818401526020810190506111e6565b60008484015250505050565b6000611218826111d8565b61122281856110e4565b93506112328185602086016111e3565b61123b81610904565b840191505092915050565b600081519050919050565b600082825260208201905092915050565b6000819050602082019050919050565b61127b81610a71565b82525050565b600061128d8383611272565b60208301905092915050565b6000602082019050919050565b60006112b182611246565b6112bb8185611251565b93506112c683611262565b8060005b838110156112f75781516112de8882611281565b97506112e983611299565b9250506001810190506112ca565b5085935050505092915050565b600060c0820190506113196000830189610d45565b818103602083015261132b818861120d565b9050818103604083015261133f818761120d565b90508181036060830152611353818661120d565b90508181036080830152611367818561120d565b905081810360a083015261137b81846112a6565b9050979650505050505050565b7f4e487b7100000000000000000000000000000000000000000000000000000000600052603260045260246000fd5b600081519050919050565b600082825260208201905092915050565b6000819050602082019050919050565b6113ec81610ce2565b82525050565b60006113fe83836113e3565b60208301905092915050565b6000602082019050919050565b6000611422826113b7565b61142c81856113c2565b9350611437836113d3565b8060005b8381101561146857815161144f88826113f2565b975061145a8361140a565b92505060018101905061143b565b5085935050505092915050565b6000819050919050565b600060ff82169050919050565b6000819050919050565b60006114b16114ac6114a784611475565b61148c565b61147f565b9050919050565b6114c181611496565b82525050565b600060408201905081810360008301526114e18185611417565b90506114f060208301846114b8565b9392505050565b600081519050919050565b600082825260208201905092915050565b6000819050602082019050919050565b61152c81610c77565b82525050565b600061153e8383611523565b60208301905092915050565b6000602082019050919050565b6000611562826114f7565b61156c8185611502565b935061157783611513565b8060005b838110156115a857815161158f8882611532565b975061159a8361154a565b92505060018101905061157b565b5085935050505092915050565b600081519050919050565b600082825260208201905092915050565b6000819050602082019050919050565b600082825260208201905092915050565b60006115fd826113b7565b61160781856115e1565b9350611612836113d3565b8060005b8381101561164357815161162a88826113f2565b97506116358361140a565b925050600181019050611616565b5085935050505092915050565b600061165c83836115f2565b905092915050565b6000602082019050919050565b600061167c826115b5565b61168681856115c0565b935083602082028501611698856115d1565b8060005b858110156116d457848403895281516116b58582611650565b94506116c083611664565b925060208a0199505060018101905061169c565b50829750879550505050505092915050565b60006080820190506116fb6000830187610d45565b818103602083015261170d818661120d565b905081810360408301526117218185611557565b905081810360608301526117358184611671565b905095945050505050565b7f455243313136373a20637265617465206661696c656400000000000000000000600082015250565b60006117766016836110e4565b915061178182611740565b602082019050919050565b600060208201905081810360008301526117a581611769565b9050919050565b7f4e6f74204f776e65720000000000000000000000000000000000000000000000600082015250565b60006117e26009836110e4565b91506117ed826117ac565b602082019050919050565b60006020820190508181036000830152611811816117d5565b905091905056fea264697066735822122047589ac3b221630069af5448c3d95133b98190bab233505a06f7f45d4666f8a864736f6c63430008110033",
  "linkReferences": {},
  "deployedLinkReferences": {}
}